8=FIX.4.2|9=73|35=A|34=1|49=CLIENT1|52=20191030-06:09:11.959000|56=EXECUTOR|98=0|108=30|10=245|8=FIX.4.2|9=73|35=A|34=2|49=CLIENT1|52=20191030-06:09:13.965000|56=EXECUTOR|98=0|108=30|10=245|8=FIX.4.2|9=73|35=A|34=3|49=CLIENT1|52=20191030-06:09:15.964000|56=EXECUTOR|98=0|108=30|10=247|8=FIX.4.2|9=73|35=A|34=4|49=CLIENT1|52=20191030-06:09:17.962000|56=EXECUTOR|98=0|108=30|10=248|8=FIX.4.2|9=73|35=A|34=5|49=CLIENT1|52=20191030-06:09:19.959000|56=EXECUTOR|98=0|108=30|10=001|8=FIX.4.2|9=73|35=A|34=6|49=CLIENT1|52=20191030-06:09:21.952000|56=EXECUTOR|98=0|108=30|10=244|8=FIX.4.2|9=73|35=A|34=7|49=CLIENT1|52=20191030-06:09:23.947000|56=EXECUTOR|98=0|108=30|10=251|8=FIX.4.2|9=73|35=A|34=8|49=CLIENT1|52=20191030-06:09:25.942000|56=EXECUTOR|98=0|108=30|10=249|8=FIX.4.2|9=73|35=A|34=9|49=CLIENT1|52=20191030-06:10:53.686000|56=EXECUTOR|98=0|108=30|10=248|8=FIX.4.2|9=62|35=0|34=10|49=CLIENT1|52=20191030-06:11:23.648000|56=EXECUTOR|10=240|8=FIX.4.2|9=62|35=0|34=11|49=CLIENT1|52=20191030-06:11:53.421000|56=EXECUTOR|10=233|8=FIX.4.2|9=62|35=0|34=12|49=CLIENT1|52=20191030-06:12:23.062000|56=EXECUTOR|10=233|8=FIX.4.2|9=62|35=0|34=13|49=CLIENT1|52=20191030-06:12:53.550000|56=EXECUTOR|10=239|8=FIX.4.2|9=62|35=0|34=14|49=CLIENT1|52=20191030-06:13:23.062000|56=EXECUTOR|10=236|8=FIX.4.2|9=62|35=0|34=15|49=CLIENT1|52=20191030-06:13:53.247000|56=EXECUTOR|10=245|8=FIX.4.2|9=62|35=0|34=16|49=CLIENT1|52=20191030-06:14:23.293000|56=EXECUTOR|10=245|8=FIX.4.2|9=62|35=0|34=17|49=CLIENT1|52=20191030-06:14:53.199000|56=EXECUTOR|10=254|8=FIX.4.2|9=62|35=0|34=18|49=CLIENT1|52=20191030-06:15:23.006000|56=EXECUTOR|10=240|8=FIX.4.2|9=62|35=0|34=19|49=CLIENT1|52=20191030-06:15:53.651000|56=EXECUTOR|10=250|8=FIX.4.2|9=62|35=0|34=20|49=CLIENT1|52=20191030-06:16:23.221000|56=EXECUTOR|10=233|8=FIX.4.2|9=62|35=0|34=21|49=CLIENT1|52=20191030-06:16:53.528000|56=EXECUTOR|10=247|8=FIX.4.2|9=129|35=D|34=22|49=CLIENT1|52=20191030-06:17:06.224000|56=EXECUTOR|11=eeee32|21=1|38=400|40=1|54=1|55=SSBUX|59=0|60=20191030-06:16:29|10=177|8=FIX.4.2|9=62|35=0|34=23|49=CLIENT1|52=20191030-06:17:36.240000|56=EXECUTOR|10=242|8=FIX.4.2|9=62|35=0|34=24|49=CLIENT1|52=20191030-06:18:06.099000|56=EXECUTOR|10=253|8=FIX.4.2|9=62|35=0|34=25|49=CLIENT1|52=20191030-06:18:36.215000|56=EXECUTOR|10=247|8=FIX.4.2|9=62|35=0|34=26|49=CLIENT1|52=20191030-06:19:06.178000|56=EXECUTOR|10=254|8=FIX.4.2|9=62|35=0|34=27|49=CLIENT1|52=20191030-06:19:36.454000|56=EXECUTOR|10=255|8=FIX.4.2|9=62|35=0|34=28|49=CLIENT1|52=20191030-06:20:06.128000|56=EXECUTOR|10=243|8=FIX.4.2|9=129|35=D|34=29|49=CLIENT1|52=20191030-06:20:10.064000|56=EXECUTOR|11=3242134|21=1|38=100|40=1|54=1|55=TWTR|59=0|60=20191030-06:19:45|10=211|8=FIX.4.2|9=62|35=0|34=30|49=CLIENT1|52=20191030-06:20:40.482000|56=EXECUTOR|10=237|8=FIX.4.2|9=62|35=0|34=31|49=CLIENT1|52=20191030-06:21:10.248000|56=EXECUTOR|10=236|8=FIX.4.2|9=62|35=0|34=32|49=CLIENT1|52=20191030-06:21:40.405000|56=EXECUTOR|10=235|8=FIX.4.2|9=62|35=0|34=33|49=CLIENT1|52=20191030-06:22:10.401000|56=EXECUTOR|10=230|8=FIX.4.2|9=62|35=0|34=34|49=CLIENT1|52=20191030-06:22:40.273000|56=EXECUTOR|10=241|8=FIX.4.2|9=62|35=0|34=35|49=CLIENT1|52=20191030-06:23:10.008000|56=EXECUTOR|10=236|8=FIX.4.2|9=62|35=0|34=36|49=CLIENT1|52=20191030-06:23:40.480000|56=EXECUTOR|10=244|8=FIX.4.2|9=62|35=0|34=37|49=CLIENT1|52=20191030-06:24:10.203000|56=EXECUTOR|10=236|8=FIX.4.2|9=62|35=0|34=38|49=CLIENT1|52=20191030-06:24:40.394000|56=EXECUTOR|10=251|8=FIX.4.2|9=62|35=0|34=39|49=CLIENT1|52=20191030-06:25:10.422000|56=EXECUTOR|10=242|8=FIX.4.2|9=62|35=0|34=40|49=CLIENT1|52=20191030-06:25:40.297000|56=EXECUTOR|10=247|8=FIX.4.2|9=62|35=0|34=41|49=CLIENT1|52=20191030-06:26:10.027000|56=EXECUTOR|10=237|8=FIX.4.2|9=62|35=0|34=42|49=CLIENT1|52=20191030-06:26:40.510000|56=EXECUTOR|10=238|8=FIX.4.2|9=122|35=D|34=43|49=CLIENT1|52=20191030-06:27:01.004000|56=EXECUTOR|11=1|21=1|38=10|40=1|54=1|55=TSLA|59=0|60=20191030-06:26:40|10=067|8=FIX.4.2|9=62|35=0|34=44|49=CLIENT1|52=20191030-06:27:31.194000|56=EXECUTOR|10=249|8=FIX.4.2|9=62|35=0|34=45|49=CLIENT1|52=20191030-06:28:01.214000|56=EXECUTOR|10=241|8=FIX.4.2|9=62|35=0|34=46|49=CLIENT1|52=20191030-06:28:31.063000|56=EXECUTOR|10=247|8=FIX.4.2|9=62|35=0|34=47|49=CLIENT1|52=20191030-06:29:01.577000|56=EXECUTOR|10=000|8=FIX.4.2|9=62|35=0|34=48|49=CLIENT1|52=20191030-06:29:31.093000|56=EXECUTOR|10=253|8=FIX.4.2|9=62|35=0|34=49|49=CLIENT1|52=20191030-06:30:01.232000|56=EXECUTOR|10=238|8=FIX.4.2|9=74|35=A|34=50|49=CLIENT1|52=20191030-06:30:38.908000|56=EXECUTOR|98=0|108=30|10=039|8=FIX.4.2|9=62|35=0|34=51|49=CLIENT1|52=20191030-06:31:08.788000|56=EXECUTOR|10=255|