8=FIX.4.4|9=73|35=A|34=1|49=CLIENT1|52=20191030-06:31:36.433000|56=EXECUTOR|98=0|108=30|10=236|8=FIX.4.4|9=61|35=0|34=2|49=CLIENT1|52=20191030-06:32:06.004000|56=EXECUTOR|10=184|8=FIX.4.4|9=126|35=D|34=3|49=CLIENT1|52=20191030-06:32:28.258000|56=EXECUTOR|11=123213|21=1|38=10|40=1|54=1|55=TSLA|59=0|60=20191030-06:32:04|10=029|8=FIX.4.4|9=61|35=0|34=4|49=CLIENT1|52=20191030-06:32:58.011000|56=EXECUTOR|10=191|8=FIX.4.4|9=61|35=0|34=5|49=CLIENT1|52=20191030-06:33:28.622000|56=EXECUTOR|10=198|8=FIX.4.4|9=61|35=0|34=6|49=CLIENT1|52=20191030-06:33:58.120000|56=EXECUTOR|10=195|8=FIX.4.4|9=61|35=0|34=7|49=CLIENT1|52=20191030-06:34:28.422000|56=EXECUTOR|10=199|8=FIX.4.4|9=61|35=0|34=8|49=CLIENT1|52=20191030-06:34:58.603000|56=EXECUTOR|10=204|8=FIX.4.4|9=61|35=0|34=9|49=CLIENT1|52=20191030-06:35:28.586000|56=EXECUTOR|10=213|8=FIX.4.4|9=62|35=0|34=10|49=CLIENT1|52=20191030-06:35:58.427000|56=EXECUTOR|10=251|8=FIX.4.4|9=62|35=0|34=11|49=CLIENT1|52=20191030-06:36:28.088000|56=EXECUTOR|10=253|8=FIX.4.4|9=121|35=D|34=12|49=CLIENT1|52=20191030-06:36:44.520000|56=EXECUTOR|11=1|21=1|38=1|40=1|54=1|55=TSLA|59=0|60=20191030-06:36:16|10=030|8=FIX.4.4|9=62|35=0|34=13|49=CLIENT1|52=20191030-06:37:14.047000|56=EXECUTOR|10=246|8=FIX.4.4|9=62|35=0|34=14|49=CLIENT1|52=20191030-06:37:44.046000|56=EXECUTOR|10=249|8=FIX.4.4|9=62|35=0|34=15|49=CLIENT1|52=20191030-06:38:14.215000|56=EXECUTOR|10=246|8=FIX.4.4|9=119|35=D|34=16|49=CLIENT1|52=20191030-06:38:22.826000|56=EXECUTOR|11=1|21=1|38=1|40=1|54=1|55=TS|59=0|60=20191030-06:38:06|10=164|8=FIX.4.4|9=62|35=0|34=17|49=CLIENT1|52=20191030-06:38:52.391000|56=EXECUTOR|10=255|8=FIX.4.4|9=123|35=D|34=18|49=CLIENT1|52=20191030-06:39:13.014000|56=EXECUTOR|11=1|21=1|38=450|40=1|54=1|55=TSLA|59=0|60=20191030-06:38:51|10=140|8=FIX.4.4|9=62|35=0|34=19|49=CLIENT1|52=20191030-06:39:43.024000|56=EXECUTOR|10=251|8=FIX.4.4|9=62|35=0|34=20|49=CLIENT1|52=20191030-06:40:13.474000|56=EXECUTOR|10=241|8=FIX.4.4|9=62|35=0|34=21|49=CLIENT1|52=20191030-06:40:43.125000|56=EXECUTOR|10=238|8=FIX.4.4|9=62|35=0|34=22|49=CLIENT1|52=20191030-06:41:13.274000|56=EXECUTOR|10=242|8=FIX.4.4|9=62|35=0|34=23|49=CLIENT1|52=20191030-06:41:43.226000|56=EXECUTOR|10=243|8=FIX.4.4|9=62|35=0|34=24|49=CLIENT1|52=20191030-06:42:13.020000|56=EXECUTOR|10=234|8=FIX.4.4|9=62|35=0|34=25|49=CLIENT1|52=20191030-06:42:43.303000|56=EXECUTOR|10=242|8=FIX.4.4|9=62|35=0|34=26|49=CLIENT1|52=20191030-06:43:13.401000|56=EXECUTOR|10=240|8=FIX.4.4|9=62|35=0|34=27|49=CLIENT1|52=20191030-06:43:43.254000|56=EXECUTOR|10=250|8=FIX.4.4|9=62|35=0|34=28|49=CLIENT1|52=20191030-06:44:13.317000|56=EXECUTOR|10=249|8=FIX.4.4|9=62|35=0|34=29|49=CLIENT1|52=20191030-06:44:43.230000|56=EXECUTOR|10=247|8=FIX.4.4|9=62|35=0|34=30|49=CLIENT1|52=20191030-06:45:13.088000|56=EXECUTOR|10=248|8=FIX.4.4|9=62|35=0|34=31|49=CLIENT1|52=20191030-06:45:43.651000|56=EXECUTOR|10=248|8=FIX.4.4|9=62|35=0|34=32|49=CLIENT1|52=20191030-06:46:13.098000|56=EXECUTOR|10=252|8=FIX.4.4|9=62|35=0|34=33|49=CLIENT1|52=20191030-06:46:43.112000|56=EXECUTOR|10=243|8=FIX.4.4|9=62|35=0|34=34|49=CLIENT1|52=20191030-06:47:13.068000|56=EXECUTOR|10=252|8=FIX.4.4|9=62|35=0|34=35|49=CLIENT1|52=20191030-06:47:43.329000|56=EXECUTOR|10=000|8=FIX.4.4|9=62|35=0|34=36|49=CLIENT1|52=20191030-06:48:13.279000|56=EXECUTOR|10=003|8=FIX.4.4|9=62|35=0|34=37|49=CLIENT1|52=20191030-06:48:43.031000|56=EXECUTOR|10=249|8=FIX.4.4|9=62|35=0|34=38|49=CLIENT1|52=20191030-06:49:13.126000|56=EXECUTOR|10=253|8=FIX.4.4|9=62|35=0|34=39|49=CLIENT1|52=20191030-06:49:43.041000|56=EXECUTOR|10=253|8=FIX.4.4|9=62|35=0|34=40|49=CLIENT1|52=20191030-06:50:13.310000|56=EXECUTOR|10=233|8=FIX.4.4|9=62|35=0|34=41|49=CLIENT1|52=20191030-06:50:43.361000|56=EXECUTOR|10=243|8=FIX.4.4|9=62|35=0|34=42|49=CLIENT1|52=20191030-06:51:13.177000|56=EXECUTOR|10=247|8=FIX.4.4|9=74|35=A|34=43|49=CLIENT1|52=20191030-08:14:41.638000|56=EXECUTOR|98=0|108=30|10=041|8=FIX.4.4|9=74|35=A|34=44|49=CLIENT1|52=20191030-08:14:43.643000|56=EXECUTOR|98=0|108=30|10=040|8=FIX.4.4|9=74|35=A|34=45|49=CLIENT1|52=20191030-08:14:45.644000|56=EXECUTOR|98=0|108=30|10=044|8=FIX.4.4|9=74|35=A|34=46|49=CLIENT1|52=20191030-08:14:47.647000|56=EXECUTOR|98=0|108=30|10=050|8=FIX.4.4|9=62|35=0|34=47|49=CLIENT1|52=20191030-08:15:17.509000|56=EXECUTOR|10=001|8=FIX.4.4|9=62|35=0|34=48|49=CLIENT1|52=20191030-08:15:47.178000|56=EXECUTOR|10=007|8=FIX.4.4|9=62|35=0|34=49|49=CLIENT1|52=20191030-08:16:17.691000|56=EXECUTOR|10=006|8=FIX.4.4|9=62|35=0|34=50|49=CLIENT1|52=20191030-08:16:47.021000|56=EXECUTOR|10=244|8=FIX.4.4|9=62|35=0|34=51|49=CLIENT1|52=20191030-08:17:17.155000|56=EXECUTOR|10=251|8=FIX.4.4|9=62|35=0|34=52|49=CLIENT1|52=20191030-08:17:47.137000|56=EXECUTOR|10=255|8=FIX.4.4|9=125|35=D|34=53|49=CLIENT1|52=20191030-08:17:48.920000|56=EXECUTOR|11=100|21=1|38=300|40=1|54=1|55=TSLA|59=0|60=20191030-08:15:39|10=246|8=FIX.4.4|9=62|35=0|34=54|49=CLIENT1|52=20191030-08:18:18.062000|56=EXECUTOR|10=253|8=FIX.4.4|9=62|35=0|34=55|49=CLIENT1|52=20191030-08:18:48.036000|56=EXECUTOR|10=002|8=FIX.4.4|9=62|35=0|34=56|49=CLIENT1|52=20191030-08:19:18.528000|56=EXECUTOR|10=007|8=FIX.4.4|9=62|35=0|34=57|49=CLIENT1|52=20191030-08:19:48.251000|56=EXECUTOR|10=004|8=FIX.4.4|9=62|35=0|34=58|49=CLIENT1|52=20191030-08:20:18.438000|56=EXECUTOR|10=001|8=FIX.4.4|9=62|35=0|34=59|49=CLIENT1|52=20191030-08:20:48.493000|56=EXECUTOR|10=006|8=FIX.4.4|9=62|35=0|34=60|49=CLIENT1|52=20191030-08:21:18.424000|56=EXECUTOR|10=246|8=FIX.4.4|9=62|35=0|34=61|49=CLIENT1|52=20191030-08:21:48.210000|56=EXECUTOR|10=243|8=FIX.4.4|9=62|35=0|34=62|49=CLIENT1|52=20191030-08:22:18.246000|56=EXECUTOR|10=251|8=FIX.4.4|9=62|35=0|34=63|49=CLIENT1|52=20191030-08:22:48.153000|56=EXECUTOR|10=252|8=FIX.4.4|9=62|35=0|34=64|49=CLIENT1|52=20191030-08:23:18.419000|56=EXECUTOR|10=000|8=FIX.4.4|9=62|35=0|34=65|49=CLIENT1|52=20191030-08:23:48.064000|56=EXECUTOR|10=000|8=FIX.4.4|9=62|35=0|34=66|49=CLIENT1|52=20191030-08:24:18.051000|56=EXECUTOR|10=251|8=FIX.4.4|9=62|35=0|34=67|49=CLIENT1|52=20191030-08:24:48.372000|56=EXECUTOR|10=005|8=FIX.4.4|9=62|35=0|34=68|49=CLIENT1|52=20191030-08:25:18.054000|56=EXECUTOR|10=001|8=FIX.4.4|9=62|35=0|34=69|49=CLIENT1|52=20191030-08:25:48.109000|56=EXECUTOR|10=006|8=FIX.4.4|9=62|35=0|34=70|49=CLIENT1|52=20191030-08:26:18.028000|56=EXECUTOR|10=252|8=FIX.4.4|9=62|35=0|34=71|49=CLIENT1|52=20191030-08:26:48.168000|56=EXECUTOR|10=005|8=FIX.4.4|9=62|35=0|34=72|49=CLIENT1|52=20191030-08:27:18.174000|56=EXECUTOR|10=001|8=FIX.4.4|9=62|35=0|34=73|49=CLIENT1|52=20191030-08:27:48.007000|56=EXECUTOR|10=000|8=FIX.4.4|9=62|35=0|34=74|49=CLIENT1|52=20191030-08:28:18.291000|56=EXECUTOR|10=004|8=FIX.4.4|9=62|35=0|34=75|49=CLIENT1|52=20191030-08:28:48.429000|56=EXECUTOR|10=011|8=FIX.4.4|9=62|35=0|34=76|49=CLIENT1|52=20191030-08:29:18.432000|56=EXECUTOR|10=004|8=FIX.4.4|9=62|35=0|34=77|49=CLIENT1|52=20191030-08:29:48.294000|56=EXECUTOR|10=014|8=FIX.4.4|9=62|35=0|34=78|49=CLIENT1|52=20191030-08:30:18.227000|56=EXECUTOR|10=000|8=FIX.4.4|9=62|35=0|34=79|49=CLIENT1|52=20191030-08:30:48.692000|56=EXECUTOR|10=010|8=FIX.4.4|9=62|35=0|34=80|49=CLIENT1|52=20191030-08:31:18.108000|56=EXECUTOR|10=248|8=FIX.4.4|9=62|35=0|34=81|49=CLIENT1|52=20191030-08:31:48.230000|56=EXECUTOR|10=248|8=FIX.4.4|9=62|35=0|34=82|49=CLIENT1|52=20191030-08:32:18.168000|56=EXECUTOR|10=001|8=FIX.4.4|9=62|35=0|34=83|49=CLIENT1|52=20191030-08:32:48.071000|56=EXECUTOR|10=254|8=FIX.4.4|9=62|35=0|34=84|49=CLIENT1|52=20191030-08:33:18.524000|56=EXECUTOR|10=000|8=FIX.4.4|9=62|35=0|34=85|49=CLIENT1|52=20191030-08:33:48.087000|56=EXECUTOR|10=008|8=FIX.4.4|9=62|35=0|34=86|49=CLIENT1|52=20191030-08:34:18.310000|56=EXECUTOR|10=252|8=FIX.4.4|9=62|35=0|34=87|49=CLIENT1|52=20191030-08:34:48.274000|56=EXECUTOR|10=009|8=FIX.4.4|9=62|35=0|34=88|49=CLIENT1|52=20191030-08:35:18.081000|56=EXECUTOR|10=004|8=FIX.4.4|9=62|35=0|34=89|49=CLIENT1|52=20191030-08:35:48.537000|56=EXECUTOR|10=014|8=FIX.4.4|9=62|35=0|34=90|49=CLIENT1|52=20191030-08:36:18.017000|56=EXECUTOR|10=253|8=FIX.4.4|9=62|35=0|34=91|49=CLIENT1|52=20191030-08:36:48.076000|56=EXECUTOR|10=006|8=FIX.4.4|9=62|35=0|34=92|49=CLIENT1|52=20191030-08:37:18.010000|56=EXECUTOR|10=249|8=FIX.4.4|9=62|35=0|34=93|49=CLIENT1|52=20191030-08:37:48.480000|56=EXECUTOR|10=008|8=FIX.4.4|9=62|35=0|34=94|49=CLIENT1|52=20191030-08:38:18.029000|56=EXECUTOR|10=006|8=FIX.4.4|9=62|35=0|34=95|49=CLIENT1|52=20191030-08:38:48.071000|56=EXECUTOR|10=007|8=FIX.4.4|9=62|35=0|34=96|49=CLIENT1|52=20191030-08:39:18.084000|56=EXECUTOR|10=010|8=FIX.4.4|9=62|35=0|34=97|49=CLIENT1|52=20191030-08:39:48.451000|56=EXECUTOR|10=012|8=FIX.4.4|9=62|35=0|34=98|49=CLIENT1|52=20191030-08:40:18.069000|56=EXECUTOR|10=007|8=FIX.4.4|9=62|35=0|34=99|49=CLIENT1|52=20191030-08:40:48.016000|56=EXECUTOR|10=003|8=FIX.4.4|9=63|35=0|34=100|49=CLIENT1|52=20191030-08:41:18.171000|56=EXECUTOR|10=035|8=FIX.4.4|9=72|35=1|34=101|49=CLIENT1|52=20191030-08:42:01.014000|56=EXECUTOR|112=TEST|10=044|8=FIX.4.4|9=72|35=0|34=102|49=CLIENT1|52=20191030-08:42:01.167000|56=EXECUTOR|112=TEST|10=053|8=FIX.4.4|9=63|35=0|34=103|49=CLIENT1|52=20191030-08:42:31.370000|56=EXECUTOR|10=035|8=FIX.4.4|9=63|35=0|34=104|49=CLIENT1|52=20191030-08:43:01.322000|56=EXECUTOR|10=031|8=FIX.4.4|9=63|35=0|34=105|49=CLIENT1|52=20191030-08:43:31.028000|56=EXECUTOR|10=038|8=FIX.4.4|9=63|35=0|34=106|49=CLIENT1|52=20191030-08:44:01.028000|56=EXECUTOR|10=037|8=FIX.4.4|9=63|35=0|34=107|49=CLIENT1|52=20191030-08:44:31.592000|56=EXECUTOR|10=047|8=FIX.4.4|9=63|35=0|34=108|49=CLIENT1|52=20191030-08:45:01.231000|56=EXECUTOR|10=036|8=FIX.4.4|9=63|35=0|34=109|49=CLIENT1|52=20191030-08:45:31.534000|56=EXECUTOR|10=046|8=FIX.4.4|9=75|35=A|34=110|49=CLIENT1|52=20191030-08:49:15.007000|56=EXECUTOR|98=0|108=30|10=084|8=FIX.4.4|9=75|35=A|34=111|49=CLIENT1|52=20191030-08:49:17.263000|56=EXECUTOR|98=0|108=30|10=091|8=FIX.4.4|9=75|35=A|34=112|49=CLIENT1|52=20191030-08:49:19.347000|56=EXECUTOR|98=0|108=30|10=097|8=FIX.4.4|9=75|35=A|34=113|49=CLIENT1|52=20191030-08:49:21.433000|56=EXECUTOR|98=0|108=30|10=087|8=FIX.4.4|9=63|35=0|34=114|49=CLIENT1|52=20191030-08:49:51.113000|56=EXECUTOR|10=041|8=FIX.4.4|9=63|35=0|34=115|49=CLIENT1|52=20191030-08:50:21.272000|56=EXECUTOR|10=037|8=FIX.4.4|9=63|35=0|34=116|49=CLIENT1|52=20191030-08:50:51.173000|56=EXECUTOR|10=041|8=FIX.4.4|9=63|35=0|34=117|49=CLIENT1|52=20191030-08:51:21.092000|56=EXECUTOR|10=040|8=FIX.4.4|9=63|35=0|34=118|49=CLIENT1|52=20191030-08:51:51.155000|56=EXECUTOR|10=044|8=FIX.4.4|9=63|35=0|34=119|49=CLIENT1|52=20191030-08:52:21.413000|56=EXECUTOR|10=040|8=FIX.4.4|9=63|35=0|34=120|49=CLIENT1|52=20191030-08:52:51.478000|56=EXECUTOR|10=046|8=FIX.4.4|9=63|35=0|34=121|49=CLIENT1|52=20191030-08:53:21.302000|56=EXECUTOR|10=031|8=FIX.4.4|9=63|35=0|34=122|49=CLIENT1|52=20191030-08:53:51.582000|56=EXECUTOR|10=045|8=FIX.4.4|9=63|35=0|34=123|49=CLIENT1|52=20191030-08:54:21.006000|56=EXECUTOR|10=035|8=FIX.4.4|9=63|35=0|34=124|49=CLIENT1|52=20191030-08:54:51.385000|56=EXECUTOR|10=049|8=FIX.4.4|9=63|35=0|34=125|49=CLIENT1|52=20191030-08:55:21.042000|56=EXECUTOR|10=038|8=FIX.4.4|9=63|35=0|34=126|49=CLIENT1|52=20191030-08:55:51.162000|56=EXECUTOR|10=045|8=FIX.4.4|9=63|35=0|34=127|49=CLIENT1|52=20191030-08:56:21.028000|56=EXECUTOR|10=045|8=FIX.4.4|9=63|35=0|34=128|49=CLIENT1|52=20191030-08:56:51.320000|56=EXECUTOR|10=044|8=FIX.4.4|9=63|35=0|34=129|49=CLIENT1|52=20191030-08:57:21.344000|56=EXECUTOR|10=049|8=FIX.4.4|9=63|35=0|34=130|49=CLIENT1|52=20191030-08:57:51.066000|56=EXECUTOR|10=045|8=FIX.4.4|9=63|35=0|34=131|49=CLIENT1|52=20191030-08:58:21.316000|56=EXECUTOR|10=042|8=FIX.4.4|9=63|35=0|34=132|49=CLIENT1|52=20191030-08:58:51.345000|56=EXECUTOR|10=048|8=FIX.4.4|9=63|35=0|34=133|49=CLIENT1|52=20191030-08:59:21.088000|56=EXECUTOR|10=051|8=FIX.4.4|9=63|35=0|34=134|49=CLIENT1|52=20191030-08:59:51.109000|56=EXECUTOR|10=049|8=FIX.4.4|9=63|35=0|34=135|49=CLIENT1|52=20191030-09:00:21.278000|56=EXECUTOR|10=041|8=FIX.4.4|9=63|35=0|34=136|49=CLIENT1|52=20191030-09:00:51.126000|56=EXECUTOR|10=037|8=FIX.4.4|9=63|35=0|34=137|49=CLIENT1|52=20191030-09:01:21.124000|56=EXECUTOR|10=034|8=FIX.4.4|9=63|35=0|34=138|49=CLIENT1|52=20191030-09:01:51.320000|56=EXECUTOR|10=036|8=FIX.4.4|9=63|35=0|34=139|49=CLIENT1|52=20191030-09:02:21.093000|56=EXECUTOR|10=042|8=FIX.4.4|9=63|35=0|34=140|49=CLIENT1|52=20191030-09:02:51.503000|56=EXECUTOR|10=033|8=FIX.4.4|9=63|35=0|34=141|49=CLIENT1|52=20191030-09:03:21.010000|56=EXECUTOR|10=025|8=FIX.4.4|9=63|35=0|34=142|49=CLIENT1|52=20191030-09:03:51.052000|56=EXECUTOR|10=035|8=FIX.4.4|9=63|35=0|34=143|49=CLIENT1|52=20191030-09:04:21.197000|56=EXECUTOR|10=044|8=FIX.4.4|9=63|35=0|34=144|49=CLIENT1|52=20191030-09:04:51.251000|56=EXECUTOR|10=039|8=FIX.4.4|9=63|35=0|34=145|49=CLIENT1|52=20191030-09:05:21.004000|56=EXECUTOR|10=034|8=FIX.4.4|9=63|35=0|34=146|49=CLIENT1|52=20191030-09:05:51.192000|56=EXECUTOR|10=046|8=FIX.4.4|9=63|35=0|34=147|49=CLIENT1|52=20191030-09:06:21.339000|56=EXECUTOR|10=048|8=FIX.4.4|9=63|35=0|34=148|49=CLIENT1|52=20191030-09:06:51.000000|56=EXECUTOR|10=037|8=FIX.4.4|9=63|35=0|34=149|49=CLIENT1|52=20191030-09:07:21.021000|56=EXECUTOR|10=039|8=FIX.4.4|9=63|35=0|34=150|49=CLIENT1|52=20191030-09:07:51.271000|56=EXECUTOR|10=041|8=FIX.4.4|9=63|35=0|34=151|49=CLIENT1|52=20191030-09:08:21.198000|56=EXECUTOR|10=048|8=FIX.4.4|9=63|35=0|34=152|49=CLIENT1|52=20191030-09:08:51.202000|56=EXECUTOR|10=038|8=FIX.4.4|9=63|35=0|34=153|49=CLIENT1|52=20191030-09:09:21.397000|56=EXECUTOR|10=052|8=FIX.4.4|9=63|35=0|34=154|49=CLIENT1|52=20191030-09:09:51.356000|56=EXECUTOR|10=051|8=FIX.4.4|9=63|35=0|34=155|49=CLIENT1|52=20191030-09:10:21.005000|56=EXECUTOR|10=032|8=FIX.4.4|9=63|35=0|34=156|49=CLIENT1|52=20191030-09:10:51.168000|56=EXECUTOR|10=046|8=FIX.4.4|9=63|35=0|34=157|49=CLIENT1|52=20191030-09:11:21.120000|56=EXECUTOR|10=033|8=FIX.4.4|9=63|35=0|34=158|49=CLIENT1|52=20191030-09:11:51.181000|56=EXECUTOR|10=044|8=FIX.4.4|9=63|35=0|34=159|49=CLIENT1|52=20191030-09:12:21.218000|56=EXECUTOR|10=044|8=FIX.4.4|9=63|35=0|34=160|49=CLIENT1|52=20191030-09:12:51.039000|56=EXECUTOR|10=040|8=FIX.4.4|9=63|35=0|34=161|49=CLIENT1|52=20191030-09:13:21.170000|56=EXECUTOR|10=035|8=FIX.4.4|9=63|35=0|34=162|49=CLIENT1|52=20191030-09:13:51.045000|56=EXECUTOR|10=040|8=FIX.4.4|9=63|35=0|34=163|49=CLIENT1|52=20191030-09:14:21.028000|56=EXECUTOR|10=040|8=FIX.4.4|9=63|35=0|34=164|49=CLIENT1|52=20191030-09:14:51.026000|56=EXECUTOR|10=042|8=FIX.4.4|9=63|35=0|34=165|49=CLIENT1|52=20191030-09:15:21.024000|56=EXECUTOR|10=039|8=FIX.4.4|9=63|35=0|34=166|49=CLIENT1|52=20191030-09:15:51.094000|56=EXECUTOR|10=050|8=FIX.4.4|9=63|35=0|34=167|49=CLIENT1|52=20191030-09:16:21.111000|56=EXECUTOR|10=039|8=FIX.4.4|9=63|35=0|34=168|49=CLIENT1|52=20191030-09:16:51.012000|56=EXECUTOR|10=043|8=FIX.4.4|9=63|35=0|34=169|49=CLIENT1|52=20191030-09:17:21.126000|56=EXECUTOR|10=048|8=FIX.4.4|9=63|35=0|34=170|49=CLIENT1|52=20191030-09:17:51.010000|56=EXECUTOR|10=035|8=FIX.4.4|9=63|35=0|34=171|49=CLIENT1|52=20191030-09:18:21.044000|56=EXECUTOR|10=041|8=FIX.4.4|9=63|35=0|34=172|49=CLIENT1|52=20191030-09:18:51.106000|56=EXECUTOR|10=044|8=FIX.4.4|9=63|35=0|34=173|49=CLIENT1|52=20191030-09:19:21.083000|56=EXECUTOR|10=047|8=FIX.4.4|9=63|35=0|34=174|49=CLIENT1|52=20191030-09:19:51.030000|56=EXECUTOR|10=043|8=FIX.4.4|9=63|35=0|34=175|49=CLIENT1|52=20191030-09:20:21.074000|56=EXECUTOR|10=041|8=FIX.4.4|9=63|35=0|34=176|49=CLIENT1|52=20191030-09:20:51.038000|56=EXECUTOR|10=045|8=FIX.4.4|9=63|35=0|34=177|49=CLIENT1|52=20191030-09:21:21.005000|56=EXECUTOR|10=038|8=FIX.4.4|9=63|35=0|34=178|49=CLIENT1|52=20191030-09:21:51.026000|56=EXECUTOR|10=045|8=FIX.4.4|9=63|35=0|34=179|49=CLIENT1|52=20191030-09:22:21.157000|56=EXECUTOR|10=049|8=FIX.4.4|9=63|35=0|34=180|49=CLIENT1|52=20191030-09:22:51.005000|56=EXECUTOR|10=036|8=FIX.4.4|9=63|35=0|34=181|49=CLIENT1|52=20191030-09:23:21.067000|56=EXECUTOR|10=043|8=FIX.4.4|9=63|35=0|34=182|49=CLIENT1|52=20191030-09:23:51.079000|56=EXECUTOR|10=050|8=FIX.4.4|9=63|35=0|34=183|49=CLIENT1|52=20191030-09:24:21.247000|56=EXECUTOR|10=046|8=FIX.4.4|9=63|35=0|34=184|49=CLIENT1|52=20191030-09:24:51.265000|56=EXECUTOR|10=050|8=FIX.4.4|9=63|35=0|34=185|49=CLIENT1|52=20191030-09:25:21.219000|56=EXECUTOR|10=048|8=FIX.4.4|9=63|35=0|34=186|49=CLIENT1|52=20191030-09:25:51.114000|56=EXECUTOR|10=046|8=FIX.4.4|9=63|35=0|34=187|49=CLIENT1|52=20191030-09:26:21.018000|56=EXECUTOR|10=048|8=FIX.4.4|9=63|35=0|34=188|49=CLIENT1|52=20191030-09:26:51.019000|56=EXECUTOR|10=053|8=FIX.4.4|9=63|35=0|34=189|49=CLIENT1|52=20191030-09:27:21.203000|56=EXECUTOR|10=047|8=FIX.4.4|9=63|35=0|34=190|49=CLIENT1|52=20191030-09:27:51.121000|56=EXECUTOR|10=041|8=FIX.4.4|9=63|35=0|34=191|49=CLIENT1|52=20191030-09:28:21.179000|56=EXECUTOR|10=053|8=FIX.4.4|9=63|35=0|34=192|49=CLIENT1|52=20191030-09:28:51.189000|56=EXECUTOR|10=058|8=FIX.4.4|9=63|35=0|34=193|49=CLIENT1|52=20191030-09:29:21.178000|56=EXECUTOR|10=055|8=FIX.4.4|9=63|35=0|34=194|49=CLIENT1|52=20191030-09:29:51.121000|56=EXECUTOR|10=047|8=FIX.4.4|9=63|35=0|34=195|49=CLIENT1|52=20191030-09:30:21.082000|56=EXECUTOR|10=043|8=FIX.4.4|9=63|35=0|34=196|49=CLIENT1|52=20191030-09:30:51.091000|56=EXECUTOR|10=047|8=FIX.4.4|9=63|35=0|34=197|49=CLIENT1|52=20191030-09:31:21.033000|56=EXECUTOR|10=042|8=FIX.4.4|9=63|35=0|34=198|49=CLIENT1|52=20191030-09:31:51.042000|56=EXECUTOR|10=046|8=FIX.4.4|9=63|35=0|34=199|49=CLIENT1|52=20191030-09:32:21.073000|56=EXECUTOR|10=049|8=FIX.4.4|9=63|35=0|34=200|49=CLIENT1|52=20191030-09:32:51.058000|56=EXECUTOR|10=038|8=FIX.4.4|9=63|35=0|34=201|49=CLIENT1|52=20191030-09:33:21.022000|56=EXECUTOR|10=028|8=FIX.4.4|9=63|35=0|34=202|49=CLIENT1|52=20191030-09:33:51.043000|56=EXECUTOR|10=035|8=FIX.4.4|9=63|35=0|34=203|49=CLIENT1|52=20191030-09:34:21.434000|56=EXECUTOR|10=038|8=FIX.4.4|9=63|35=0|34=204|49=CLIENT1|52=20191030-09:34:51.452000|56=EXECUTOR|10=042|8=FIX.4.4|9=63|35=0|34=205|49=CLIENT1|52=20191030-09:35:21.342000|56=EXECUTOR|10=039|8=FIX.4.4|9=127|35=D|34=206|49=CLIENT1|52=20191030-09:35:29.850000|56=EXECUTOR|11=54554|21=1|38=1|40=1|54=1|55=tesla|59=0|60=20191030-09:35:00|10=026|8=FIX.4.4|9=63|35=0|34=207|49=CLIENT1|52=20191030-09:35:59.557000|56=EXECUTOR|10=060|8=FIX.4.4|9=63|35=0|34=208|49=CLIENT1|52=20191030-09:36:29.121000|56=EXECUTOR|10=046|8=FIX.4.4|9=63|35=0|34=209|49=CLIENT1|52=20191030-09:36:59.503000|56=EXECUTOR|10=054|8=FIX.4.4|9=63|35=0|34=210|49=CLIENT1|52=20191030-09:37:29.713000|56=EXECUTOR|10=047|8=FIX.4.4|9=63|35=0|34=211|49=CLIENT1|52=20191030-09:37:59.763000|56=EXECUTOR|10=056|8=FIX.4.4|9=63|35=0|34=212|49=CLIENT1|52=20191030-09:38:29.655000|56=EXECUTOR|10=055|8=FIX.4.4|9=63|35=0|34=213|49=CLIENT1|52=20191030-09:38:59.372000|56=EXECUTOR|10=055|8=FIX.4.4|9=63|35=0|34=214|49=CLIENT1|52=20191030-09:39:29.164000|56=EXECUTOR|10=053|8=FIX.4.4|9=63|35=0|34=215|49=CLIENT1|52=20191030-09:39:59.349000|56=EXECUTOR|10=062|8=FIX.4.4|9=63|35=0|34=216|49=CLIENT1|52=20191030-09:40:29.379000|56=EXECUTOR|10=055|8=FIX.4.4|9=63|35=0|34=217|49=CLIENT1|52=20191030-09:40:59.241000|56=EXECUTOR|10=047|8=FIX.4.4|9=63|35=0|34=218|49=CLIENT1|52=20191030-09:41:29.494000|56=EXECUTOR|10=056|8=FIX.4.4|9=63|35=0|34=219|49=CLIENT1|52=20191030-09:41:59.622000|56=EXECUTOR|10=053|8=FIX.4.4|9=63|35=0|34=220|49=CLIENT1|52=20191030-09:42:29.633000|56=EXECUTOR|10=045|8=FIX.4.4|9=63|35=0|34=221|49=CLIENT1|52=20191030-09:42:59.502000|56=EXECUTOR|10=044|8=FIX.4.4|9=63|35=0|34=222|49=CLIENT1|52=20191030-09:43:29.249000|56=EXECUTOR|10=051|8=FIX.4.4|9=63|35=0|34=223|49=CLIENT1|52=20191030-09:43:59.671000|56=EXECUTOR|10=054|8=FIX.4.4|9=63|35=0|34=224|49=CLIENT1|52=20191030-09:44:29.131000|56=EXECUTOR|10=044|8=FIX.4.4|9=63|35=0|34=225|49=CLIENT1|52=20191030-09:44:59.175000|56=EXECUTOR|10=056|8=FIX.4.4|9=63|35=0|34=226|49=CLIENT1|52=20191030-09:45:29.057000|56=EXECUTOR|10=054|8=FIX.4.4|9=63|35=0|34=227|49=CLIENT1|52=20191030-09:45:59.134000|56=EXECUTOR|10=054|8=FIX.4.4|9=63|35=0|34=228|49=CLIENT1|52=20191030-09:46:29.042000|56=EXECUTOR|10=051|8=FIX.4.4|9=63|35=0|34=229|49=CLIENT1|52=20191030-09:46:59.186000|56=EXECUTOR|10=064|8=FIX.4.4|9=63|35=0|34=230|49=CLIENT1|52=20191030-09:47:29.155000|56=EXECUTOR|10=050|8=FIX.4.4|9=63|35=0|34=231|49=CLIENT1|52=20191030-09:47:59.581000|56=EXECUTOR|10=057|8=FIX.4.4|9=63|35=0|34=232|49=CLIENT1|52=20191030-09:48:29.116000|56=EXECUTOR|10=050|8=FIX.4.4|9=63|35=0|34=233|49=CLIENT1|52=20191030-09:48:59.202000|56=EXECUTOR|10=050|8=FIX.4.4|9=63|35=0|34=234|49=CLIENT1|52=20191030-09:49:29.067000|56=EXECUTOR|10=058|8=FIX.4.4|9=134|35=D|34=235|49=CLIENT1|52=20191030-09:49:47.411000|56=EXECUTOR|11=1123|21=1|38=123|40=2|44=320|54=2|55=TSLA|59=0|60=20191030-09:49:11|10=156|8=FIX.4.4|9=63|35=0|34=236|49=CLIENT1|52=20191030-09:50:17.114000|56=EXECUTOR|10=042|8=FIX.4.4|9=126|35=D|34=237|49=CLIENT1|52=20191030-09:50:41.232000|56=EXECUTOR|11=123|21=1|38=120|40=1|54=2|55=TSLA|59=0|60=20191030-09:50:23|10=029|8=FIX.4.4|9=63|35=0|34=238|49=CLIENT1|52=20191030-09:51:11.527000|56=EXECUTOR|10=047|8=FIX.4.4|9=63|35=0|34=239|49=CLIENT1|52=20191030-09:51:41.058000|56=EXECUTOR|10=050|8=FIX.4.4|9=63|35=0|34=240|49=CLIENT1|52=20191030-09:52:11.055000|56=EXECUTOR|10=037|8=FIX.4.4|9=63|35=0|34=241|49=CLIENT1|52=20191030-09:52:41.568000|56=EXECUTOR|10=050|8=FIX.4.4|9=63|35=0|34=242|49=CLIENT1|52=20191030-09:53:11.129000|56=EXECUTOR|10=042|8=FIX.4.4|9=63|35=0|34=243|49=CLIENT1|52=20191030-09:53:41.142000|56=EXECUTOR|10=041|8=FIX.4.4|9=63|35=0|34=244|49=CLIENT1|52=20191030-09:54:11.362000|56=EXECUTOR|10=044|8=FIX.4.4|9=63|35=0|34=245|49=CLIENT1|52=20191030-09:54:41.416000|56=EXECUTOR|10=048|8=FIX.4.4|9=63|35=0|34=246|49=CLIENT1|52=20191030-09:55:11.312000|56=EXECUTOR|10=042|8=FIX.4.4|9=63|35=0|34=247|49=CLIENT1|52=20191030-09:55:41.023000|56=EXECUTOR|10=045|8=FIX.4.4|9=63|35=0|34=248|49=CLIENT1|52=20191030-09:56:11.112000|56=EXECUTOR|10=043|8=FIX.4.4|9=63|35=0|34=249|49=CLIENT1|52=20191030-09:56:41.342000|56=EXECUTOR|10=052|8=FIX.4.4|9=63|35=0|34=250|49=CLIENT1|52=20191030-09:57:11.414000|56=EXECUTOR|10=042|8=FIX.4.4|9=63|35=0|34=251|49=CLIENT1|52=20191030-09:57:41.321000|56=EXECUTOR|10=043|8=FIX.4.4|9=63|35=0|34=252|49=CLIENT1|52=20191030-09:58:11.075000|56=EXECUTOR|10=048|8=FIX.4.4|9=63|35=0|34=253|49=CLIENT1|52=20191030-09:58:41.146000|56=EXECUTOR|10=051|8=FIX.4.4|9=63|35=0|34=254|49=CLIENT1|52=20191030-09:59:11.346000|56=EXECUTOR|10=052|8=FIX.4.4|9=63|35=0|34=255|49=CLIENT1|52=20191030-09:59:41.362000|56=EXECUTOR|10=054|8=FIX.4.4|9=63|35=0|34=256|49=CLIENT1|52=20191030-10:00:11.069000|56=EXECUTOR|10=034|8=FIX.4.4|9=126|35=D|34=257|49=CLIENT1|52=20191030-10:00:18.408000|56=EXECUTOR|11=1023|21=1|38=123|40=1|54=1|55=eer|59=0|60=20191030-09:59:51|10=095|8=FIX.4.4|9=63|35=0|34=258|49=CLIENT1|52=20191030-10:00:48.007000|56=EXECUTOR|10=038|8=FIX.4.4|9=63|35=0|34=259|49=CLIENT1|52=20191030-10:01:18.174000|56=EXECUTOR|10=042|8=FIX.4.4|9=63|35=0|34=260|49=CLIENT1|52=20191030-10:01:48.063000|56=EXECUTOR|10=034|8=FIX.4.4|9=63|35=0|34=261|49=CLIENT1|52=20191030-10:02:18.240000|56=EXECUTOR|10=030|8=FIX.4.4|9=63|35=0|34=262|49=CLIENT1|52=20191030-10:02:48.002000|56=EXECUTOR|10=030|8=FIX.4.4|9=63|35=0|34=263|49=CLIENT1|52=20191030-10:03:18.124000|56=EXECUTOR|10=034|8=FIX.4.4|9=63|35=0|34=264|49=CLIENT1|52=20191030-10:03:48.283000|56=EXECUTOR|10=044|8=FIX.4.4|9=63|35=0|34=265|49=CLIENT1|52=20191030-10:04:18.230000|56=EXECUTOR|10=035|8=FIX.4.4|9=63|35=0|34=266|49=CLIENT1|52=20191030-10:04:48.032000|56=EXECUTOR|10=039|8=FIX.4.4|9=63|35=0|34=267|49=CLIENT1|52=20191030-10:05:18.361000|56=EXECUTOR|10=043|8=FIX.4.4|9=63|35=0|34=268|49=CLIENT1|52=20191030-10:05:48.340000|56=EXECUTOR|10=044|8=FIX.4.4|9=63|35=0|34=269|49=CLIENT1|52=20191030-10:06:18.276000|56=EXECUTOR|10=051|8=FIX.4.4|9=63|35=0|34=270|49=CLIENT1|52=20191030-10:06:48.034000|56=EXECUTOR|10=038|8=FIX.4.4|9=63|35=0|34=271|49=CLIENT1|52=20191030-10:07:18.305000|56=EXECUTOR|10=038|8=FIX.4.4|9=63|35=0|34=272|49=CLIENT1|52=20191030-10:07:48.335000|56=EXECUTOR|10=045|8=FIX.4.4|9=63|35=0|34=273|49=CLIENT1|52=20191030-10:08:18.001000|56=EXECUTOR|10=034|8=FIX.4.4|9=63|35=0|34=274|49=CLIENT1|52=20191030-10:08:48.160000|56=EXECUTOR|10=044|8=FIX.4.4|9=63|35=0|34=275|49=CLIENT1|52=20191030-10:09:18.010000|56=EXECUTOR|10=037|8=FIX.4.4|9=63|35=0|34=276|49=CLIENT1|52=20191030-10:09:48.141000|56=EXECUTOR|10=046|8=FIX.4.4|9=63|35=0|34=277|49=CLIENT1|52=20191030-10:10:18.059000|56=EXECUTOR|10=044|8=FIX.4.4|9=63|35=0|34=278|49=CLIENT1|52=20191030-10:10:48.337000|56=EXECUTOR|10=047|8=FIX.4.4|9=63|35=0|34=279|49=CLIENT1|52=20191030-10:11:18.019000|56=EXECUTOR|10=043|8=FIX.4.4|9=63|35=0|34=280|49=CLIENT1|52=20191030-10:11:48.371000|56=EXECUTOR|10=039|8=FIX.4.4|9=63|35=0|34=281|49=CLIENT1|52=20191030-10:12:18.030000|56=EXECUTOR|10=030|8=FIX.4.4|9=63|35=0|34=282|49=CLIENT1|52=20191030-10:12:48.038000|56=EXECUTOR|10=042|8=FIX.4.4|9=63|35=0|34=283|49=CLIENT1|52=20191030-10:13:18.361000|56=EXECUTOR|10=040|8=FIX.4.4|9=63|35=0|34=284|49=CLIENT1|52=20191030-10:13:48.154000|56=EXECUTOR|10=044|8=FIX.4.4|9=63|35=0|34=285|49=CLIENT1|52=20191030-10:14:18.253000|56=EXECUTOR|10=043|8=FIX.4.4|9=63|35=0|34=286|49=CLIENT1|52=20191030-10:14:48.072000|56=EXECUTOR|10=046|8=FIX.4.4|9=63|35=0|34=287|49=CLIENT1|52=20191030-10:15:18.022000|56=EXECUTOR|10=040|8=FIX.4.4|9=63|35=0|34=288|49=CLIENT1|52=20191030-10:15:48.060000|56=EXECUTOR|10=046|8=FIX.4.4|9=63|35=0|34=289|49=CLIENT1|52=20191030-10:16:18.374000|56=EXECUTOR|10=053|8=FIX.4.4|9=63|35=0|34=290|49=CLIENT1|52=20191030-10:16:48.102000|56=EXECUTOR|10=037|8=FIX.4.4|9=63|35=0|34=291|49=CLIENT1|52=20191030-10:17:18.190000|56=EXECUTOR|10=043|8=FIX.4.4|9=63|35=0|34=292|49=CLIENT1|52=20191030-10:17:48.059000|56=EXECUTOR|10=051|8=FIX.4.4|9=63|35=0|34=293|49=CLIENT1|52=20191030-10:18:18.253000|56=EXECUTOR|10=046|8=FIX.4.4|9=63|35=0|34=294|49=CLIENT1|52=20191030-10:18:48.237000|56=EXECUTOR|10=052|8=FIX.4.4|9=63|35=0|34=295|49=CLIENT1|52=20191030-10:19:18.172000|56=EXECUTOR|10=049|8=FIX.4.4|9=63|35=0|34=296|49=CLIENT1|52=20191030-10:19:48.211000|56=EXECUTOR|10=047|