8=FIX.4.4|9=73|35=A|34=1|49=CLIENT1|52=20191102-09:26:22.452734|56=EXECUTOR|98=0|108=30|10=253|8=FIX.4.4|9=73|35=A|34=2|49=CLIENT1|52=20191102-09:26:24.455943|56=EXECUTOR|98=0|108=30|10=005|8=FIX.4.4|9=73|35=A|34=3|49=CLIENT1|52=20191102-09:26:26.459702|56=EXECUTOR|98=0|108=30|10=005|8=FIX.4.4|9=73|35=A|34=4|49=CLIENT1|52=20191102-09:26:28.463689|56=EXECUTOR|98=0|108=30|10=017|8=FIX.4.4|9=73|35=A|34=5|49=CLIENT1|52=20191102-09:26:30.466661|56=EXECUTOR|98=0|108=30|10=004|