8=FIX.4.4|9=73|35=A|34=1|49=EXECUTOR|52=20191030-06:31:36.433000|56=CLIENT1|98=0|108=30|10=236|8=FIX.4.4|9=61|35=0|34=2|49=EXECUTOR|52=20191030-06:32:06.001000|56=CLIENT1|10=181|8=FIX.4.4|9=135|35=3|34=3|49=EXECUTOR|52=20191030-06:32:28.262000|56=CLIENT1|45=3|58=Value is incorrect (out of range) for this tag|371=40|372=D|373=5|10=080|8=FIX.4.4|9=61|35=0|34=4|49=EXECUTOR|52=20191030-06:32:58.012000|56=CLIENT1|10=192|8=FIX.4.4|9=61|35=0|34=5|49=EXECUTOR|52=20191030-06:33:28.625000|56=CLIENT1|10=201|8=FIX.4.4|9=61|35=0|34=6|49=EXECUTOR|52=20191030-06:33:58.122000|56=CLIENT1|10=197|8=FIX.4.4|9=61|35=0|34=7|49=EXECUTOR|52=20191030-06:34:28.425000|56=CLIENT1|10=202|8=FIX.4.4|9=61|35=0|34=8|49=EXECUTOR|52=20191030-06:34:58.603000|56=CLIENT1|10=204|8=FIX.4.4|9=61|35=0|34=9|49=EXECUTOR|52=20191030-06:35:28.586000|56=CLIENT1|10=213|8=FIX.4.4|9=62|35=0|34=10|49=EXECUTOR|52=20191030-06:35:58.427000|56=CLIENT1|10=251|8=FIX.4.4|9=62|35=0|34=11|49=EXECUTOR|52=20191030-06:36:28.087000|56=CLIENT1|10=252|8=FIX.4.4|9=137|35=3|34=12|49=EXECUTOR|52=20191030-06:36:44.521000|56=CLIENT1|45=12|58=Value is incorrect (out of range) for this tag|371=40|372=D|373=5|10=178|8=FIX.4.4|9=62|35=0|34=13|49=EXECUTOR|52=20191030-06:37:14.047000|56=CLIENT1|10=246|8=FIX.4.4|9=62|35=0|34=14|49=EXECUTOR|52=20191030-06:37:44.045000|56=CLIENT1|10=248|8=FIX.4.4|9=62|35=0|34=15|49=EXECUTOR|52=20191030-06:38:14.215000|56=CLIENT1|10=246|8=FIX.4.4|9=137|35=3|34=16|49=EXECUTOR|52=20191030-06:38:22.827000|56=CLIENT1|45=16|58=Value is incorrect (out of range) for this tag|371=40|372=D|373=5|10=193|8=FIX.4.4|9=62|35=0|34=17|49=EXECUTOR|52=20191030-06:38:52.388000|56=CLIENT1|10=005|8=FIX.4.4|9=137|35=3|34=18|49=EXECUTOR|52=20191030-06:39:13.015000|56=CLIENT1|45=18|58=Value is incorrect (out of range) for this tag|371=40|372=D|373=5|10=187|8=FIX.4.4|9=62|35=0|34=19|49=EXECUTOR|52=20191030-06:39:43.021000|56=CLIENT1|10=248|8=FIX.4.4|9=62|35=0|34=20|49=EXECUTOR|52=20191030-06:40:13.474000|56=CLIENT1|10=241|8=FIX.4.4|9=62|35=0|34=21|49=EXECUTOR|52=20191030-06:40:43.124000|56=CLIENT1|10=237|8=FIX.4.4|9=62|35=0|34=22|49=EXECUTOR|52=20191030-06:41:13.276000|56=CLIENT1|10=244|8=FIX.4.4|9=62|35=0|34=23|49=EXECUTOR|52=20191030-06:41:43.229000|56=CLIENT1|10=246|8=FIX.4.4|9=62|35=0|34=24|49=EXECUTOR|52=20191030-06:42:13.018000|56=CLIENT1|10=241|8=FIX.4.4|9=62|35=0|34=25|49=EXECUTOR|52=20191030-06:42:43.302000|56=CLIENT1|10=241|8=FIX.4.4|9=62|35=0|34=26|49=EXECUTOR|52=20191030-06:43:13.398000|56=CLIENT1|10=255|8=FIX.4.4|9=62|35=0|34=27|49=EXECUTOR|52=20191030-06:43:43.252000|56=CLIENT1|10=248|8=FIX.4.4|9=62|35=0|34=28|49=EXECUTOR|52=20191030-06:44:13.318000|56=CLIENT1|10=250|8=FIX.4.4|9=62|35=0|34=29|49=EXECUTOR|52=20191030-06:44:43.230000|56=CLIENT1|10=247|8=FIX.4.4|9=62|35=0|34=30|49=EXECUTOR|52=20191030-06:45:13.089000|56=CLIENT1|10=249|8=FIX.4.4|9=62|35=0|34=31|49=EXECUTOR|52=20191030-06:45:43.651000|56=CLIENT1|10=248|8=FIX.4.4|9=62|35=0|34=32|49=EXECUTOR|52=20191030-06:46:13.098000|56=CLIENT1|10=252|8=FIX.4.4|9=62|35=0|34=33|49=EXECUTOR|52=20191030-06:46:43.110000|56=CLIENT1|10=241|8=FIX.4.4|9=62|35=0|34=34|49=EXECUTOR|52=20191030-06:47:13.071000|56=CLIENT1|10=246|8=FIX.4.4|9=62|35=0|34=35|49=EXECUTOR|52=20191030-06:47:43.326000|56=CLIENT1|10=253|8=FIX.4.4|9=62|35=0|34=36|49=EXECUTOR|52=20191030-06:48:13.279000|56=CLIENT1|10=003|8=FIX.4.4|9=62|35=0|34=37|49=EXECUTOR|52=20191030-06:48:43.030000|56=CLIENT1|10=248|8=FIX.4.4|9=62|35=0|34=38|49=EXECUTOR|52=20191030-06:49:13.129000|56=CLIENT1|10=000|8=FIX.4.4|9=62|35=0|34=39|49=EXECUTOR|52=20191030-06:49:43.038000|56=CLIENT1|10=003|8=FIX.4.4|9=62|35=0|34=40|49=EXECUTOR|52=20191030-06:50:13.310000|56=CLIENT1|10=233|8=FIX.4.4|9=62|35=0|34=41|49=EXECUTOR|52=20191030-06:50:43.361000|56=CLIENT1|10=243|8=FIX.4.4|9=62|35=0|34=42|49=EXECUTOR|52=20191030-06:51:13.177000|56=CLIENT1|10=247|8=FIX.4.4|9=74|35=A|34=43|49=EXECUTOR|52=20191030-08:14:47.650000|56=CLIENT1|98=0|108=30|10=041|8=FIX.4.4|9=72|35=2|34=44|49=EXECUTOR|52=20191030-08:14:47.650000|56=CLIENT1|7=43|16=0|10=177|8=FIX.4.4|9=62|35=0|34=45|49=EXECUTOR|52=20191030-08:15:17.511000|56=CLIENT1|10=248|8=FIX.4.4|9=62|35=0|34=46|49=EXECUTOR|52=20191030-08:15:47.179000|56=CLIENT1|10=006|8=FIX.4.4|9=62|35=0|34=47|49=EXECUTOR|52=20191030-08:16:17.693000|56=CLIENT1|10=006|8=FIX.4.4|9=62|35=0|34=48|49=EXECUTOR|52=20191030-08:16:47.023000|56=CLIENT1|10=253|8=FIX.4.4|9=62|35=0|34=49|49=EXECUTOR|52=20191030-08:17:17.157000|56=CLIENT1|10=004|8=FIX.4.4|9=62|35=0|34=50|49=EXECUTOR|52=20191030-08:17:47.140000|56=CLIENT1|10=247|8=FIX.4.4|9=137|35=3|34=51|49=EXECUTOR|52=20191030-08:17:48.929000|56=CLIENT1|45=53|58=Value is incorrect (out of range) for this tag|371=40|372=D|373=5|10=203|8=FIX.4.4|9=62|35=0|34=52|49=EXECUTOR|52=20191030-08:18:18.062000|56=CLIENT1|10=251|8=FIX.4.4|9=62|35=0|34=53|49=EXECUTOR|52=20191030-08:18:48.033000|56=CLIENT1|10=253|8=FIX.4.4|9=62|35=0|34=54|49=EXECUTOR|52=20191030-08:19:18.531000|56=CLIENT1|10=255|8=FIX.4.4|9=62|35=0|34=55|49=EXECUTOR|52=20191030-08:19:48.250000|56=CLIENT1|10=001|8=FIX.4.4|9=62|35=0|34=56|49=EXECUTOR|52=20191030-08:20:18.442000|56=CLIENT1|10=250|8=FIX.4.4|9=62|35=0|34=57|49=EXECUTOR|52=20191030-08:20:48.493000|56=CLIENT1|10=004|8=FIX.4.4|9=62|35=0|34=58|49=EXECUTOR|52=20191030-08:21:18.424000|56=CLIENT1|10=253|8=FIX.4.4|9=62|35=0|34=59|49=EXECUTOR|52=20191030-08:21:48.211000|56=CLIENT1|10=251|8=FIX.4.4|9=62|35=0|34=60|49=EXECUTOR|52=20191030-08:22:18.246000|56=CLIENT1|10=249|8=FIX.4.4|9=62|35=0|34=61|49=EXECUTOR|52=20191030-08:22:48.152000|56=CLIENT1|10=249|8=FIX.4.4|9=62|35=0|34=62|49=EXECUTOR|52=20191030-08:23:18.420000|56=CLIENT1|10=246|8=FIX.4.4|9=62|35=0|34=63|49=EXECUTOR|52=20191030-08:23:48.064000|56=CLIENT1|10=254|8=FIX.4.4|9=62|35=0|34=64|49=EXECUTOR|52=20191030-08:24:18.051000|56=CLIENT1|10=249|8=FIX.4.4|9=62|35=0|34=65|49=EXECUTOR|52=20191030-08:24:48.372000|56=CLIENT1|10=003|8=FIX.4.4|9=62|35=0|34=66|49=EXECUTOR|52=20191030-08:25:18.054000|56=CLIENT1|10=255|8=FIX.4.4|9=62|35=0|34=67|49=EXECUTOR|52=20191030-08:25:48.109000|56=CLIENT1|10=004|8=FIX.4.4|9=62|35=0|34=68|49=EXECUTOR|52=20191030-08:26:18.027000|56=CLIENT1|10=002|8=FIX.4.4|9=62|35=0|34=69|49=EXECUTOR|52=20191030-08:26:48.168000|56=CLIENT1|10=012|8=FIX.4.4|9=62|35=0|34=70|49=EXECUTOR|52=20191030-08:27:18.175000|56=CLIENT1|10=000|8=FIX.4.4|9=62|35=0|34=71|49=EXECUTOR|52=20191030-08:27:48.007000|56=CLIENT1|10=254|8=FIX.4.4|9=62|35=0|34=72|49=EXECUTOR|52=20191030-08:28:18.289000|56=CLIENT1|10=009|8=FIX.4.4|9=62|35=0|34=73|49=EXECUTOR|52=20191030-08:28:48.427000|56=CLIENT1|10=007|8=FIX.4.4|9=62|35=0|34=74|49=EXECUTOR|52=20191030-08:29:18.432000|56=CLIENT1|10=002|8=FIX.4.4|9=62|35=0|34=75|49=EXECUTOR|52=20191030-08:29:48.293000|56=CLIENT1|10=011|8=FIX.4.4|9=62|35=0|34=76|49=EXECUTOR|52=20191030-08:30:18.228000|56=CLIENT1|10=255|8=FIX.4.4|9=62|35=0|34=77|49=EXECUTOR|52=20191030-08:30:48.691000|56=CLIENT1|10=007|8=FIX.4.4|9=62|35=0|34=78|49=EXECUTOR|52=20191030-08:31:18.105000|56=CLIENT1|10=252|8=FIX.4.4|9=62|35=0|34=79|49=EXECUTOR|52=20191030-08:31:48.227000|56=CLIENT1|10=005|8=FIX.4.4|9=62|35=0|34=80|49=EXECUTOR|52=20191030-08:32:18.165000|56=CLIENT1|10=252|8=FIX.4.4|9=62|35=0|34=81|49=EXECUTOR|52=20191030-08:32:48.072000|56=CLIENT1|10=253|8=FIX.4.4|9=62|35=0|34=82|49=EXECUTOR|52=20191030-08:33:18.522000|56=CLIENT1|10=252|8=FIX.4.4|9=62|35=0|34=83|49=EXECUTOR|52=20191030-08:33:48.087000|56=CLIENT1|10=006|8=FIX.4.4|9=62|35=0|34=84|49=EXECUTOR|52=20191030-08:34:18.309000|56=CLIENT1|10=002|8=FIX.4.4|9=62|35=0|34=85|49=EXECUTOR|52=20191030-08:34:48.274000|56=CLIENT1|10=007|8=FIX.4.4|9=62|35=0|34=86|49=EXECUTOR|52=20191030-08:35:18.080000|56=CLIENT1|10=001|8=FIX.4.4|9=62|35=0|34=87|49=EXECUTOR|52=20191030-08:35:48.537000|56=CLIENT1|10=012|8=FIX.4.4|9=62|35=0|34=88|49=EXECUTOR|52=20191030-08:36:18.015000|56=CLIENT1|10=002|8=FIX.4.4|9=62|35=0|34=89|49=EXECUTOR|52=20191030-08:36:48.077000|56=CLIENT1|10=014|8=FIX.4.4|9=62|35=0|34=90|49=EXECUTOR|52=20191030-08:37:18.010000|56=CLIENT1|10=247|8=FIX.4.4|9=62|35=0|34=91|49=EXECUTOR|52=20191030-08:37:48.483000|56=CLIENT1|10=009|8=FIX.4.4|9=62|35=0|34=92|49=EXECUTOR|52=20191030-08:38:18.027000|56=CLIENT1|10=002|8=FIX.4.4|9=62|35=0|34=93|49=EXECUTOR|52=20191030-08:38:48.073000|56=CLIENT1|10=007|8=FIX.4.4|9=62|35=0|34=94|49=EXECUTOR|52=20191030-08:39:18.081000|56=CLIENT1|10=005|8=FIX.4.4|9=62|35=0|34=95|49=EXECUTOR|52=20191030-08:39:48.453000|56=CLIENT1|10=012|8=FIX.4.4|9=62|35=0|34=96|49=EXECUTOR|52=20191030-08:40:18.068000|56=CLIENT1|10=004|8=FIX.4.4|9=62|35=0|34=97|49=EXECUTOR|52=20191030-08:40:48.016000|56=CLIENT1|10=001|8=FIX.4.4|9=62|35=0|34=98|49=EXECUTOR|52=20191030-08:41:18.169000|56=CLIENT1|10=009|8=FIX.4.4|9=71|35=1|34=99|49=EXECUTOR|52=20191030-08:42:01.015000|56=CLIENT1|112=TEST|10=012|8=FIX.4.4|9=72|35=0|34=100|49=EXECUTOR|52=20191030-08:42:01.168000|56=CLIENT1|112=TEST|10=052|8=FIX.4.4|9=63|35=0|34=101|49=EXECUTOR|52=20191030-08:42:31.373000|56=CLIENT1|10=036|8=FIX.4.4|9=63|35=0|34=102|49=EXECUTOR|52=20191030-08:43:01.324000|56=CLIENT1|10=031|8=FIX.4.4|9=63|35=0|34=103|49=EXECUTOR|52=20191030-08:43:31.031000|56=CLIENT1|10=030|8=FIX.4.4|9=63|35=0|34=104|49=EXECUTOR|52=20191030-08:44:01.028000|56=CLIENT1|10=035|8=FIX.4.4|9=63|35=0|34=105|49=EXECUTOR|52=20191030-08:44:31.590000|56=CLIENT1|10=043|8=FIX.4.4|9=63|35=0|34=106|49=EXECUTOR|52=20191030-08:45:01.231000|56=CLIENT1|10=034|8=FIX.4.4|9=63|35=0|34=107|49=EXECUTOR|52=20191030-08:45:31.532000|56=CLIENT1|10=042|8=FIX.4.4|9=75|35=A|34=108|49=EXECUTOR|52=20191030-08:49:21.434000|56=CLIENT1|98=0|108=30|10=092|8=FIX.4.4|9=74|35=2|34=109|49=EXECUTOR|52=20191030-08:49:21.435000|56=CLIENT1|7=110|16=0|10=017|8=FIX.4.4|9=63|35=0|34=110|49=EXECUTOR|52=20191030-08:49:51.114000|56=CLIENT1|10=038|8=FIX.4.4|9=63|35=0|34=111|49=EXECUTOR|52=20191030-08:50:21.273000|56=CLIENT1|10=034|8=FIX.4.4|9=63|35=0|34=112|49=EXECUTOR|52=20191030-08:50:51.173000|56=CLIENT1|10=037|8=FIX.4.4|9=63|35=0|34=113|49=EXECUTOR|52=20191030-08:51:21.092000|56=CLIENT1|10=036|8=FIX.4.4|9=63|35=0|34=114|49=EXECUTOR|52=20191030-08:51:51.155000|56=CLIENT1|10=040|8=FIX.4.4|9=63|35=0|34=115|49=EXECUTOR|52=20191030-08:52:21.413000|56=CLIENT1|10=036|8=FIX.4.4|9=63|35=0|34=116|49=EXECUTOR|52=20191030-08:52:51.478000|56=CLIENT1|10=051|8=FIX.4.4|9=63|35=0|34=117|49=EXECUTOR|52=20191030-08:53:21.302000|56=CLIENT1|10=036|8=FIX.4.4|9=63|35=0|34=118|49=EXECUTOR|52=20191030-08:53:51.583000|56=CLIENT1|10=051|8=FIX.4.4|9=63|35=0|34=119|49=EXECUTOR|52=20191030-08:54:21.005000|56=CLIENT1|10=039|8=FIX.4.4|9=63|35=0|34=120|49=EXECUTOR|52=20191030-08:54:51.387000|56=CLIENT1|10=047|8=FIX.4.4|9=63|35=0|34=121|49=EXECUTOR|52=20191030-08:55:21.039000|56=CLIENT1|10=040|8=FIX.4.4|9=63|35=0|34=122|49=EXECUTOR|52=20191030-08:55:51.160000|56=CLIENT1|10=039|8=FIX.4.4|9=63|35=0|34=123|49=EXECUTOR|52=20191030-08:56:21.024000|56=CLIENT1|10=037|8=FIX.4.4|9=63|35=0|34=124|49=EXECUTOR|52=20191030-08:56:51.318000|56=CLIENT1|10=047|8=FIX.4.4|9=63|35=0|34=125|49=EXECUTOR|52=20191030-08:57:21.345000|56=CLIENT1|10=046|8=FIX.4.4|9=63|35=0|34=126|49=EXECUTOR|52=20191030-08:57:51.069000|56=CLIENT1|10=053|8=FIX.4.4|9=63|35=0|34=127|49=EXECUTOR|52=20191030-08:58:21.315000|56=CLIENT1|10=046|8=FIX.4.4|9=63|35=0|34=128|49=EXECUTOR|52=20191030-08:58:51.343000|56=CLIENT1|10=051|8=FIX.4.4|9=63|35=0|34=129|49=EXECUTOR|52=20191030-08:59:21.088000|56=CLIENT1|10=056|8=FIX.4.4|9=63|35=0|34=130|49=EXECUTOR|52=20191030-08:59:51.110000|56=CLIENT1|10=037|8=FIX.4.4|9=63|35=0|34=131|49=EXECUTOR|52=20191030-09:00:21.279000|56=CLIENT1|10=038|8=FIX.4.4|9=63|35=0|34=132|49=EXECUTOR|52=20191030-09:00:51.127000|56=CLIENT1|10=034|8=FIX.4.4|9=63|35=0|34=133|49=EXECUTOR|52=20191030-09:01:21.124000|56=CLIENT1|10=030|8=FIX.4.4|9=63|35=0|34=134|49=EXECUTOR|52=20191030-09:01:51.322000|56=CLIENT1|10=034|8=FIX.4.4|9=63|35=0|34=135|49=EXECUTOR|52=20191030-09:02:21.096000|56=CLIENT1|10=041|8=FIX.4.4|9=63|35=0|34=136|49=EXECUTOR|52=20191030-09:02:51.506000|56=CLIENT1|10=041|8=FIX.4.4|9=63|35=0|34=137|49=EXECUTOR|52=20191030-09:03:21.012000|56=CLIENT1|10=032|8=FIX.4.4|9=63|35=0|34=138|49=EXECUTOR|52=20191030-09:03:51.054000|56=CLIENT1|10=042|8=FIX.4.4|9=63|35=0|34=139|49=EXECUTOR|52=20191030-09:04:21.200000|56=CLIENT1|10=034|8=FIX.4.4|9=63|35=0|34=140|49=EXECUTOR|52=20191030-09:04:51.252000|56=CLIENT1|10=036|8=FIX.4.4|9=63|35=0|34=141|49=EXECUTOR|52=20191030-09:05:21.006000|56=CLIENT1|10=032|8=FIX.4.4|9=63|35=0|34=142|49=EXECUTOR|52=20191030-09:05:51.193000|56=CLIENT1|10=043|8=FIX.4.4|9=63|35=0|34=143|49=EXECUTOR|52=20191030-09:06:21.339000|56=CLIENT1|10=044|8=FIX.4.4|9=63|35=0|34=144|49=EXECUTOR|52=20191030-09:06:51.002000|56=CLIENT1|10=035|8=FIX.4.4|9=63|35=0|34=145|49=EXECUTOR|52=20191030-09:07:21.020000|56=CLIENT1|10=034|8=FIX.4.4|9=63|35=0|34=146|49=EXECUTOR|52=20191030-09:07:51.270000|56=CLIENT1|10=045|8=FIX.4.4|9=63|35=0|34=147|49=EXECUTOR|52=20191030-09:08:21.198000|56=CLIENT1|10=053|8=FIX.4.4|9=63|35=0|34=148|49=EXECUTOR|52=20191030-09:08:51.202000|56=CLIENT1|10=043|8=FIX.4.4|9=63|35=0|34=149|49=EXECUTOR|52=20191030-09:09:21.398000|56=CLIENT1|10=058|8=FIX.4.4|9=63|35=0|34=150|49=EXECUTOR|52=20191030-09:09:51.356000|56=CLIENT1|10=047|8=FIX.4.4|9=63|35=0|34=151|49=EXECUTOR|52=20191030-09:10:21.002000|56=CLIENT1|10=025|8=FIX.4.4|9=63|35=0|34=152|49=EXECUTOR|52=20191030-09:10:51.171000|56=CLIENT1|10=036|8=FIX.4.4|9=63|35=0|34=153|49=EXECUTOR|52=20191030-09:11:21.118000|56=CLIENT1|10=036|8=FIX.4.4|9=63|35=0|34=154|49=EXECUTOR|52=20191030-09:11:51.181000|56=CLIENT1|10=040|8=FIX.4.4|9=63|35=0|34=155|49=EXECUTOR|52=20191030-09:12:21.218000|56=CLIENT1|10=040|8=FIX.4.4|9=63|35=0|34=156|49=EXECUTOR|52=20191030-09:12:51.037000|56=CLIENT1|10=043|8=FIX.4.4|9=63|35=0|34=157|49=EXECUTOR|52=20191030-09:13:21.170000|56=CLIENT1|10=040|8=FIX.4.4|9=63|35=0|34=158|49=EXECUTOR|52=20191030-09:13:51.045000|56=CLIENT1|10=045|8=FIX.4.4|9=63|35=0|34=159|49=EXECUTOR|52=20191030-09:14:21.027000|56=CLIENT1|10=044|8=FIX.4.4|9=63|35=0|34=160|49=EXECUTOR|52=20191030-09:14:51.026000|56=CLIENT1|10=038|8=FIX.4.4|9=63|35=0|34=161|49=EXECUTOR|52=20191030-09:15:21.024000|56=CLIENT1|10=035|8=FIX.4.4|9=63|35=0|34=162|49=EXECUTOR|52=20191030-09:15:51.093000|56=CLIENT1|10=045|8=FIX.4.4|9=63|35=0|34=163|49=EXECUTOR|52=20191030-09:16:21.111000|56=CLIENT1|10=035|8=FIX.4.4|9=63|35=0|34=164|49=EXECUTOR|52=20191030-09:16:51.013000|56=CLIENT1|10=040|8=FIX.4.4|9=63|35=0|34=165|49=EXECUTOR|52=20191030-09:17:21.126000|56=CLIENT1|10=044|8=FIX.4.4|9=63|35=0|34=166|49=EXECUTOR|52=20191030-09:17:51.010000|56=CLIENT1|10=040|8=FIX.4.4|9=63|35=0|34=167|49=EXECUTOR|52=20191030-09:18:21.047000|56=CLIENT1|10=049|8=FIX.4.4|9=63|35=0|34=168|49=EXECUTOR|52=20191030-09:18:51.108000|56=CLIENT1|10=051|8=FIX.4.4|9=63|35=0|34=169|49=EXECUTOR|52=20191030-09:19:21.086000|56=CLIENT1|10=055|8=FIX.4.4|9=63|35=0|34=170|49=EXECUTOR|52=20191030-09:19:51.032000|56=CLIENT1|10=041|8=FIX.4.4|9=63|35=0|34=171|49=EXECUTOR|52=20191030-09:20:21.074000|56=CLIENT1|10=037|8=FIX.4.4|9=63|35=0|34=172|49=EXECUTOR|52=20191030-09:20:51.039000|56=CLIENT1|10=042|8=FIX.4.4|9=63|35=0|34=173|49=EXECUTOR|52=20191030-09:21:21.008000|56=CLIENT1|10=037|8=FIX.4.4|9=63|35=0|34=174|49=EXECUTOR|52=20191030-09:21:51.025000|56=CLIENT1|10=040|8=FIX.4.4|9=63|35=0|34=175|49=EXECUTOR|52=20191030-09:22:21.155000|56=CLIENT1|10=043|8=FIX.4.4|9=63|35=0|34=176|49=EXECUTOR|52=20191030-09:22:51.007000|56=CLIENT1|10=043|8=FIX.4.4|9=63|35=0|34=177|49=EXECUTOR|52=20191030-09:23:21.066000|56=CLIENT1|10=047|8=FIX.4.4|9=63|35=0|34=178|49=EXECUTOR|52=20191030-09:23:51.079000|56=CLIENT1|10=055|8=FIX.4.4|9=63|35=0|34=179|49=EXECUTOR|52=20191030-09:24:21.246000|56=CLIENT1|10=050|8=FIX.4.4|9=63|35=0|34=180|49=EXECUTOR|52=20191030-09:24:51.263000|56=CLIENT1|10=044|8=FIX.4.4|9=63|35=0|34=181|49=EXECUTOR|52=20191030-09:25:21.219000|56=CLIENT1|10=044|8=FIX.4.4|9=63|35=0|34=182|49=EXECUTOR|52=20191030-09:25:51.114000|56=CLIENT1|10=042|8=FIX.4.4|9=63|35=0|34=183|49=EXECUTOR|52=20191030-09:26:21.019000|56=CLIENT1|10=045|8=FIX.4.4|9=63|35=0|34=184|49=EXECUTOR|52=20191030-09:26:51.017000|56=CLIENT1|10=047|8=FIX.4.4|9=63|35=0|34=185|49=EXECUTOR|52=20191030-09:27:21.201000|56=CLIENT1|10=041|8=FIX.4.4|9=63|35=0|34=186|49=EXECUTOR|52=20191030-09:27:51.118000|56=CLIENT1|10=052|8=FIX.4.4|9=63|35=0|34=187|49=EXECUTOR|52=20191030-09:28:21.179000|56=CLIENT1|10=058|8=FIX.4.4|9=63|35=0|34=188|49=EXECUTOR|52=20191030-09:28:51.186000|56=CLIENT1|10=060|8=FIX.4.4|9=63|35=0|34=189|49=EXECUTOR|52=20191030-09:29:21.175000|56=CLIENT1|10=057|8=FIX.4.4|9=63|35=0|34=190|49=EXECUTOR|52=20191030-09:29:51.118000|56=CLIENT1|10=049|8=FIX.4.4|9=63|35=0|34=191|49=EXECUTOR|52=20191030-09:30:21.080000|56=CLIENT1|10=037|8=FIX.4.4|9=63|35=0|34=192|49=EXECUTOR|52=20191030-09:30:51.089000|56=CLIENT1|10=050|8=FIX.4.4|9=63|35=0|34=193|49=EXECUTOR|52=20191030-09:31:21.030000|56=CLIENT1|10=035|8=FIX.4.4|9=63|35=0|34=194|49=EXECUTOR|52=20191030-09:31:51.039000|56=CLIENT1|10=048|8=FIX.4.4|9=63|35=0|34=195|49=EXECUTOR|52=20191030-09:32:21.070000|56=CLIENT1|10=042|8=FIX.4.4|9=63|35=0|34=196|49=EXECUTOR|52=20191030-09:32:51.058000|56=CLIENT1|10=052|8=FIX.4.4|9=63|35=0|34=197|49=EXECUTOR|52=20191030-09:33:21.021000|56=CLIENT1|10=041|8=FIX.4.4|9=63|35=0|34=198|49=EXECUTOR|52=20191030-09:33:51.040000|56=CLIENT1|10=046|8=FIX.4.4|9=63|35=0|34=199|49=EXECUTOR|52=20191030-09:34:21.432000|56=CLIENT1|10=050|8=FIX.4.4|9=63|35=0|34=200|49=EXECUTOR|52=20191030-09:34:51.450000|56=CLIENT1|10=036|8=FIX.4.4|9=63|35=0|34=201|49=EXECUTOR|52=20191030-09:35:21.341000|56=CLIENT1|10=034|8=FIX.4.4|9=139|35=3|34=202|49=EXECUTOR|52=20191030-09:35:29.851000|56=CLIENT1|45=206|58=Value is incorrect (out of range) for this tag|371=40|372=D|373=5|10=037|8=FIX.4.4|9=63|35=0|34=203|49=EXECUTOR|52=20191030-09:35:59.555000|56=CLIENT1|10=054|8=FIX.4.4|9=63|35=0|34=204|49=EXECUTOR|52=20191030-09:36:29.117000|56=CLIENT1|10=047|8=FIX.4.4|9=63|35=0|34=205|49=EXECUTOR|52=20191030-09:36:59.503000|56=CLIENT1|10=050|8=FIX.4.4|9=63|35=0|34=206|49=EXECUTOR|52=20191030-09:37:29.715000|56=CLIENT1|10=054|8=FIX.4.4|9=63|35=0|34=207|49=EXECUTOR|52=20191030-09:37:59.764000|56=CLIENT1|10=062|8=FIX.4.4|9=63|35=0|34=208|49=EXECUTOR|52=20191030-09:38:29.655000|56=CLIENT1|10=060|8=FIX.4.4|9=63|35=0|34=209|49=EXECUTOR|52=20191030-09:38:59.375000|56=CLIENT1|10=063|8=FIX.4.4|9=63|35=0|34=210|49=EXECUTOR|52=20191030-09:39:29.164000|56=CLIENT1|10=049|8=FIX.4.4|9=63|35=0|34=211|49=EXECUTOR|52=20191030-09:39:59.349000|56=CLIENT1|10=058|8=FIX.4.4|9=63|35=0|34=212|49=EXECUTOR|52=20191030-09:40:29.380000|56=CLIENT1|10=043|8=FIX.4.4|9=63|35=0|34=213|49=EXECUTOR|52=20191030-09:40:59.244000|56=CLIENT1|10=046|8=FIX.4.4|9=63|35=0|34=214|49=EXECUTOR|52=20191030-09:41:29.491000|56=CLIENT1|10=049|8=FIX.4.4|9=63|35=0|34=215|49=EXECUTOR|52=20191030-09:41:59.622000|56=CLIENT1|10=049|8=FIX.4.4|9=63|35=0|34=216|49=EXECUTOR|52=20191030-09:42:29.632000|56=CLIENT1|10=049|8=FIX.4.4|9=63|35=0|34=217|49=EXECUTOR|52=20191030-09:42:59.499000|56=CLIENT1|10=064|8=FIX.4.4|9=63|35=0|34=218|49=EXECUTOR|52=20191030-09:43:29.247000|56=CLIENT1|10=054|8=FIX.4.4|9=63|35=0|34=219|49=EXECUTOR|52=20191030-09:43:59.672000|56=CLIENT1|10=060|8=FIX.4.4|9=63|35=0|34=220|49=EXECUTOR|52=20191030-09:44:29.132000|56=CLIENT1|10=041|8=FIX.4.4|9=63|35=0|34=221|49=EXECUTOR|52=20191030-09:44:59.176000|56=CLIENT1|10=053|8=FIX.4.4|9=63|35=0|34=222|49=EXECUTOR|52=20191030-09:45:29.059000|56=CLIENT1|10=052|8=FIX.4.4|9=63|35=0|34=223|49=EXECUTOR|52=20191030-09:45:59.132000|56=CLIENT1|10=048|8=FIX.4.4|9=63|35=0|34=224|49=EXECUTOR|52=20191030-09:46:29.039000|56=CLIENT1|10=053|8=FIX.4.4|9=63|35=0|34=225|49=EXECUTOR|52=20191030-09:46:59.187000|56=CLIENT1|10=061|8=FIX.4.4|9=63|35=0|34=226|49=EXECUTOR|52=20191030-09:47:29.155000|56=CLIENT1|10=055|8=FIX.4.4|9=63|35=0|34=227|49=EXECUTOR|52=20191030-09:47:59.579000|56=CLIENT1|10=069|8=FIX.4.4|9=63|35=0|34=228|49=EXECUTOR|52=20191030-09:48:29.116000|56=CLIENT1|10=055|8=FIX.4.4|9=63|35=0|34=229|49=EXECUTOR|52=20191030-09:48:59.203000|56=CLIENT1|10=056|8=FIX.4.4|9=63|35=0|34=230|49=EXECUTOR|52=20191030-09:49:29.067000|56=CLIENT1|10=054|8=FIX.4.4|9=145|35=8|34=231|49=EXECUTOR|52=20191030-09:49:47.415000|56=CLIENT1|6=320|11=1123|14=123|17=1|31=320|32=123|37=1|38=123|39=2|54=2|55=TSLA|150=F|151=0|10=037|8=FIX.4.4|9=63|35=0|34=232|49=EXECUTOR|52=20191030-09:50:17.114000|56=CLIENT1|10=038|8=FIX.4.4|9=139|35=3|34=233|49=EXECUTOR|52=20191030-09:50:41.232000|56=CLIENT1|45=237|58=Value is incorrect (out of range) for this tag|371=40|372=D|373=5|10=029|8=FIX.4.4|9=63|35=0|34=234|49=EXECUTOR|52=20191030-09:51:11.527000|56=CLIENT1|10=043|8=FIX.4.4|9=63|35=0|34=235|49=EXECUTOR|52=20191030-09:51:41.058000|56=CLIENT1|10=046|8=FIX.4.4|9=63|35=0|34=236|49=EXECUTOR|52=20191030-09:52:11.054000|56=CLIENT1|10=041|8=FIX.4.4|9=63|35=0|34=237|49=EXECUTOR|52=20191030-09:52:41.569000|56=CLIENT1|10=056|8=FIX.4.4|9=63|35=0|34=238|49=EXECUTOR|52=20191030-09:53:11.130000|56=CLIENT1|10=039|8=FIX.4.4|9=63|35=0|34=239|49=EXECUTOR|52=20191030-09:53:41.142000|56=CLIENT1|10=046|8=FIX.4.4|9=63|35=0|34=240|49=EXECUTOR|52=20191030-09:54:11.362000|56=CLIENT1|10=040|8=FIX.4.4|9=63|35=0|34=241|49=EXECUTOR|52=20191030-09:54:41.416000|56=CLIENT1|10=044|8=FIX.4.4|9=63|35=0|34=242|49=EXECUTOR|52=20191030-09:55:11.311000|56=CLIENT1|10=037|8=FIX.4.4|9=63|35=0|34=243|49=EXECUTOR|52=20191030-09:55:41.023000|56=CLIENT1|10=041|8=FIX.4.4|9=63|35=0|34=244|49=EXECUTOR|52=20191030-09:56:11.112000|56=CLIENT1|10=039|8=FIX.4.4|9=63|35=0|34=245|49=EXECUTOR|52=20191030-09:56:41.341000|56=CLIENT1|10=047|8=FIX.4.4|9=63|35=0|34=246|49=EXECUTOR|52=20191030-09:57:11.413000|56=CLIENT1|10=046|8=FIX.4.4|9=63|35=0|34=247|49=EXECUTOR|52=20191030-09:57:41.318000|56=CLIENT1|10=054|8=FIX.4.4|9=63|35=0|34=248|49=EXECUTOR|52=20191030-09:58:11.074000|56=CLIENT1|10=052|8=FIX.4.4|9=63|35=0|34=249|49=EXECUTOR|52=20191030-09:58:41.148000|56=CLIENT1|10=058|8=FIX.4.4|9=63|35=0|34=250|49=EXECUTOR|52=20191030-09:59:11.343000|56=CLIENT1|10=045|8=FIX.4.4|9=63|35=0|34=251|49=EXECUTOR|52=20191030-09:59:41.361000|56=CLIENT1|10=049|8=FIX.4.4|9=63|35=0|34=252|49=EXECUTOR|52=20191030-10:00:11.069000|56=CLIENT1|10=030|8=FIX.4.4|9=139|35=3|34=253|49=EXECUTOR|52=20191030-10:00:18.409000|56=CLIENT1|45=257|58=Value is incorrect (out of range) for this tag|371=40|372=D|373=5|10=030|8=FIX.4.4|9=63|35=0|34=254|49=EXECUTOR|52=20191030-10:00:48.006000|56=CLIENT1|10=033|8=FIX.4.4|9=63|35=0|34=255|49=EXECUTOR|52=20191030-10:01:18.175000|56=CLIENT1|10=039|8=FIX.4.4|9=63|35=0|34=256|49=EXECUTOR|52=20191030-10:01:48.063000|56=CLIENT1|10=039|8=FIX.4.4|9=63|35=0|34=257|49=EXECUTOR|52=20191030-10:02:18.240000|56=CLIENT1|10=035|8=FIX.4.4|9=63|35=0|34=258|49=EXECUTOR|52=20191030-10:02:48.002000|56=CLIENT1|10=035|8=FIX.4.4|9=63|35=0|34=259|49=EXECUTOR|52=20191030-10:03:18.124000|56=CLIENT1|10=039|8=FIX.4.4|9=63|35=0|34=260|49=EXECUTOR|52=20191030-10:03:48.283000|56=CLIENT1|10=040|8=FIX.4.4|9=63|35=0|34=261|49=EXECUTOR|52=20191030-10:04:18.230000|56=CLIENT1|10=031|8=FIX.4.4|9=63|35=0|34=262|49=EXECUTOR|52=20191030-10:04:48.032000|56=CLIENT1|10=035|8=FIX.4.4|9=63|35=0|34=263|49=EXECUTOR|52=20191030-10:05:18.361000|56=CLIENT1|10=039|8=FIX.4.4|9=63|35=0|34=264|49=EXECUTOR|52=20191030-10:05:48.340000|56=CLIENT1|10=040|8=FIX.4.4|9=63|35=0|34=265|49=EXECUTOR|52=20191030-10:06:18.276000|56=CLIENT1|10=047|8=FIX.4.4|9=63|35=0|34=266|49=EXECUTOR|52=20191030-10:06:48.034000|56=CLIENT1|10=043|8=FIX.4.4|9=63|35=0|34=267|49=EXECUTOR|52=20191030-10:07:18.305000|56=CLIENT1|10=043|8=FIX.4.4|9=63|35=0|34=268|49=EXECUTOR|52=20191030-10:07:48.335000|56=CLIENT1|10=050|8=FIX.4.4|9=63|35=0|34=269|49=EXECUTOR|52=20191030-10:08:18.001000|56=CLIENT1|10=039|8=FIX.4.4|9=63|35=0|34=270|49=EXECUTOR|52=20191030-10:08:48.161000|56=CLIENT1|10=041|8=FIX.4.4|9=63|35=0|34=271|49=EXECUTOR|52=20191030-10:09:18.010000|56=CLIENT1|10=033|8=FIX.4.4|9=63|35=0|34=272|49=EXECUTOR|52=20191030-10:09:48.140000|56=CLIENT1|10=041|8=FIX.4.4|9=63|35=0|34=273|49=EXECUTOR|52=20191030-10:10:18.059000|56=CLIENT1|10=040|8=FIX.4.4|9=63|35=0|34=274|49=EXECUTOR|52=20191030-10:10:48.337000|56=CLIENT1|10=043|8=FIX.4.4|9=63|35=0|34=275|49=EXECUTOR|52=20191030-10:11:18.020000|56=CLIENT1|10=031|8=FIX.4.4|9=63|35=0|34=276|49=EXECUTOR|52=20191030-10:11:48.372000|56=CLIENT1|10=045|8=FIX.4.4|9=63|35=0|34=277|49=EXECUTOR|52=20191030-10:12:18.028000|56=CLIENT1|10=042|8=FIX.4.4|9=63|35=0|34=278|49=EXECUTOR|52=20191030-10:12:48.038000|56=CLIENT1|10=047|8=FIX.4.4|9=63|35=0|34=279|49=EXECUTOR|52=20191030-10:13:18.362000|56=CLIENT1|10=046|8=FIX.4.4|9=63|35=0|34=280|49=EXECUTOR|52=20191030-10:13:48.153000|56=CLIENT1|10=039|8=FIX.4.4|9=63|35=0|34=281|49=EXECUTOR|52=20191030-10:14:18.255000|56=CLIENT1|10=041|8=FIX.4.4|9=63|35=0|34=282|49=EXECUTOR|52=20191030-10:14:48.073000|56=CLIENT1|10=043|8=FIX.4.4|9=63|35=0|34=283|49=EXECUTOR|52=20191030-10:15:18.581000|56=CLIENT1|10=046|8=FIX.4.4|9=63|35=0|34=284|49=EXECUTOR|52=20191030-10:15:48.057000|56=CLIENT1|10=048|8=FIX.4.4|9=63|35=0|34=285|49=EXECUTOR|52=20191030-10:16:18.377000|56=CLIENT1|10=052|8=FIX.4.4|9=63|35=0|34=286|49=EXECUTOR|52=20191030-10:16:48.100000|56=CLIENT1|10=040|8=FIX.4.4|9=63|35=0|34=287|49=EXECUTOR|52=20191030-10:17:18.189000|56=CLIENT1|10=056|8=FIX.4.4|9=63|35=0|34=288|49=EXECUTOR|52=20191030-10:17:48.058000|56=CLIENT1|10=055|8=FIX.4.4|9=63|35=0|34=289|49=EXECUTOR|52=20191030-10:18:18.252000|56=CLIENT1|10=050|8=FIX.4.4|9=63|35=0|34=290|49=EXECUTOR|52=20191030-10:18:48.236000|56=CLIENT1|10=047|8=FIX.4.4|9=63|35=0|34=291|49=EXECUTOR|52=20191030-10:19:18.173000|56=CLIENT1|10=046|8=FIX.4.4|9=63|35=0|34=292|49=EXECUTOR|52=20191030-10:19:48.210000|56=CLIENT1|10=042|