8=FIX.4.2|9=73|35=A|34=1|49=EXECUTOR|52=20191030-06:10:53.688000|56=CLIENT1|98=0|108=30|10=242|8=FIX.4.2|9=70|35=2|34=2|49=EXECUTOR|52=20191030-06:10:53.688000|56=CLIENT1|7=1|16=0|10=067|8=FIX.4.2|9=61|35=0|34=3|49=EXECUTOR|52=20191030-06:11:23.651000|56=CLIENT1|10=187|8=FIX.4.2|9=61|35=0|34=4|49=EXECUTOR|52=20191030-06:11:53.422000|56=CLIENT1|10=187|8=FIX.4.2|9=61|35=0|34=5|49=EXECUTOR|52=20191030-06:12:23.063000|56=CLIENT1|10=187|8=FIX.4.2|9=61|35=0|34=6|49=EXECUTOR|52=20191030-06:12:53.554000|56=CLIENT1|10=196|8=FIX.4.2|9=61|35=0|34=7|49=EXECUTOR|52=20191030-06:13:23.060000|56=CLIENT1|10=187|8=FIX.4.2|9=61|35=0|34=8|49=EXECUTOR|52=20191030-06:13:53.248000|56=CLIENT1|10=199|8=FIX.4.2|9=61|35=0|34=9|49=EXECUTOR|52=20191030-06:14:23.295000|56=CLIENT1|10=200|8=FIX.4.2|9=62|35=0|34=10|49=EXECUTOR|52=20191030-06:14:53.199000|56=CLIENT1|10=247|8=FIX.4.2|9=62|35=0|34=11|49=EXECUTOR|52=20191030-06:15:23.008000|56=CLIENT1|10=235|8=FIX.4.2|9=62|35=0|34=12|49=EXECUTOR|52=20191030-06:15:53.654000|56=CLIENT1|10=246|8=FIX.4.2|9=62|35=0|34=13|49=EXECUTOR|52=20191030-06:16:23.224000|56=CLIENT1|10=238|8=FIX.4.2|9=62|35=0|34=14|49=EXECUTOR|52=20191030-06:16:53.530000|56=CLIENT1|10=242|8=FIX.4.2|9=137|35=3|34=15|49=EXECUTOR|52=20191030-06:17:06.232000|56=CLIENT1|45=22|58=Value is incorrect (out of range) for this tag|371=40|372=D|373=5|10=176|8=FIX.4.2|9=62|35=0|34=16|49=EXECUTOR|52=20191030-06:17:36.241000|56=CLIENT1|10=245|8=FIX.4.2|9=62|35=0|34=17|49=EXECUTOR|52=20191030-06:18:06.102000|56=CLIENT1|10=240|8=FIX.4.2|9=62|35=0|34=18|49=EXECUTOR|52=20191030-06:18:36.210000|56=CLIENT1|10=244|8=FIX.4.2|9=62|35=0|34=19|49=EXECUTOR|52=20191030-06:19:06.174000|56=CLIENT1|10=252|8=FIX.4.2|9=62|35=0|34=20|49=EXECUTOR|52=20191030-06:19:36.457000|56=CLIENT1|10=251|8=FIX.4.2|9=62|35=0|34=21|49=EXECUTOR|52=20191030-06:20:06.127000|56=CLIENT1|10=235|8=FIX.4.2|9=137|35=3|34=22|49=EXECUTOR|52=20191030-06:20:10.065000|56=CLIENT1|45=29|58=Value is incorrect (out of range) for this tag|371=40|372=D|373=5|10=174|8=FIX.4.2|9=62|35=0|34=23|49=EXECUTOR|52=20191030-06:20:40.481000|56=CLIENT1|10=238|8=FIX.4.2|9=62|35=0|34=24|49=EXECUTOR|52=20191030-06:21:10.248000|56=CLIENT1|10=238|8=FIX.4.2|9=62|35=0|34=25|49=EXECUTOR|52=20191030-06:21:40.402000|56=CLIENT1|10=234|8=FIX.4.2|9=62|35=0|34=26|49=EXECUTOR|52=20191030-06:22:10.400000|56=CLIENT1|10=231|8=FIX.4.2|9=62|35=0|34=27|49=EXECUTOR|52=20191030-06:22:40.270000|56=CLIENT1|10=240|8=FIX.4.2|9=62|35=0|34=28|49=EXECUTOR|52=20191030-06:23:10.006000|56=CLIENT1|10=236|8=FIX.4.2|9=62|35=0|34=29|49=EXECUTOR|52=20191030-06:23:40.478000|56=CLIENT1|10=253|8=FIX.4.2|9=62|35=0|34=30|49=EXECUTOR|52=20191030-06:24:10.205000|56=CLIENT1|10=231|8=FIX.4.2|9=62|35=0|34=31|49=EXECUTOR|52=20191030-06:24:40.391000|56=CLIENT1|10=241|8=FIX.4.2|9=62|35=0|34=32|49=EXECUTOR|52=20191030-06:25:10.420000|56=CLIENT1|10=233|8=FIX.4.2|9=62|35=0|34=33|49=EXECUTOR|52=20191030-06:25:40.294000|56=CLIENT1|10=246|8=FIX.4.2|9=62|35=0|34=34|49=EXECUTOR|52=20191030-06:26:10.025000|56=CLIENT1|10=237|8=FIX.4.2|9=62|35=0|34=35|49=EXECUTOR|52=20191030-06:26:40.509000|56=CLIENT1|10=248|8=FIX.4.2|9=137|35=3|34=36|49=EXECUTOR|52=20191030-06:27:01.005000|56=CLIENT1|45=43|58=Value is incorrect (out of range) for this tag|371=40|372=D|373=5|10=176|8=FIX.4.2|9=62|35=0|34=37|49=EXECUTOR|52=20191030-06:27:31.191000|56=CLIENT1|10=248|8=FIX.4.2|9=62|35=0|34=38|49=EXECUTOR|52=20191030-06:28:01.214000|56=CLIENT1|10=243|8=FIX.4.2|9=62|35=0|34=39|49=EXECUTOR|52=20191030-06:28:31.065000|56=CLIENT1|10=251|8=FIX.4.2|9=62|35=0|34=40|49=EXECUTOR|52=20191030-06:29:01.577000|56=CLIENT1|10=249|8=FIX.4.2|9=62|35=0|34=41|49=EXECUTOR|52=20191030-06:29:31.094000|56=CLIENT1|10=247|8=FIX.4.2|9=62|35=0|34=42|49=EXECUTOR|52=20191030-06:30:01.235000|56=CLIENT1|10=234|8=FIX.4.2|9=74|35=A|34=43|49=EXECUTOR|52=20191030-06:30:38.908000|56=CLIENT1|98=0|108=30|10=041|8=FIX.4.2|9=62|35=0|34=44|49=EXECUTOR|52=20191030-06:31:08.788000|56=CLIENT1|10=001|